{
  "_format": "hh-sol-artifact-1",
  "contractName": "Component2",
  "sourceName": "contracts/Component2.sol",
  "abi": [
    {
      "inputs": [
        {
          "internalType": "address",
          "name": "_openSeaProxyRegistryAddress",
          "type": "address"
        }
      ],
      "stateMutability": "nonpayable",
      "type": "constructor"
    },
    {
      "anonymous": false,
      "inputs": [
        {
          "indexed": true,
          "internalType": "address",
          "name": "owner",
          "type": "address"
        },
        {
          "indexed": true,
          "internalType": "address",
          "name": "approved",
          "type": "address"
        },
        {
          "indexed": true,
          "internalType": "uint256",
          "name": "tokenId",
          "type": "uint256"
        }
      ],
      "name": "Approval",
      "type": "event"
    },
    {
      "anonymous": false,
      "inputs": [
        {
          "indexed": true,
          "internalType": "address",
          "name": "owner",
          "type": "address"
        },
        {
          "indexed": true,
          "internalType": "address",
          "name": "operator",
          "type": "address"
        },
        {
          "indexed": false,
          "internalType": "bool",
          "name": "approved",
          "type": "bool"
        }
      ],
      "name": "ApprovalForAll",
      "type": "event"
    },
    {
      "anonymous": false,
      "inputs": [
        {
          "indexed": true,
          "internalType": "address",
          "name": "previousOwner",
          "type": "address"
        },
        {
          "indexed": true,
          "internalType": "address",
          "name": "newOwner",
          "type": "address"
        }
      ],
      "name": "OwnershipTransferred",
      "type": "event"
    },
    {
      "anonymous": false,
      "inputs": [
        {
          "indexed": true,
          "internalType": "address",
          "name": "from",
          "type": "address"
        },
        {
          "indexed": true,
          "internalType": "address",
          "name": "to",
          "type": "address"
        },
        {
          "indexed": true,
          "internalType": "uint256",
          "name": "tokenId",
          "type": "uint256"
        }
      ],
      "name": "Transfer",
      "type": "event"
    },
    {
      "inputs": [],
      "name": "MerkleRoot",
      "outputs": [
        {
          "internalType": "bytes32",
          "name": "",
          "type": "bytes32"
        }
      ],
      "stateMutability": "view",
      "type": "function"
    },
    {
      "inputs": [
        {
          "internalType": "address",
          "name": "to",
          "type": "address"
        },
        {
          "internalType": "uint256",
          "name": "tokenId",
          "type": "uint256"
        }
      ],
      "name": "approve",
      "outputs": [],
      "stateMutability": "nonpayable",
      "type": "function"
    },
    {
      "inputs": [
        {
          "internalType": "address",
          "name": "owner",
          "type": "address"
        }
      ],
      "name": "balanceOf",
      "outputs": [
        {
          "internalType": "uint256",
          "name": "",
          "type": "uint256"
        }
      ],
      "stateMutability": "view",
      "type": "function"
    },
    {
      "inputs": [],
      "name": "baseTokenURI",
      "outputs": [
        {
          "internalType": "string",
          "name": "",
          "type": "string"
        }
      ],
      "stateMutability": "view",
      "type": "function"
    },
    {
      "inputs": [
        {
          "internalType": "uint256",
          "name": "tokenId",
          "type": "uint256"
        }
      ],
      "name": "burn",
      "outputs": [],
      "stateMutability": "nonpayable",
      "type": "function"
    },
    {
      "inputs": [
        {
          "internalType": "address",
          "name": "_sender",
          "type": "address"
        },
        {
          "internalType": "bytes32[]",
          "name": "proof",
          "type": "bytes32[]"
        },
        {
          "internalType": "bytes1",
          "name": "key",
          "type": "bytes1"
        }
      ],
      "name": "checkProofWithKey",
      "outputs": [
        {
          "internalType": "bool",
          "name": "",
          "type": "bool"
        }
      ],
      "stateMutability": "pure",
      "type": "function"
    },
    {
      "inputs": [
        {
          "internalType": "bytes32[]",
          "name": "_proof",
          "type": "bytes32[]"
        },
        {
          "internalType": "bytes1",
          "name": "_allowance",
          "type": "bytes1"
        },
        {
          "internalType": "uint8",
          "name": "_amount",
          "type": "uint8"
        }
      ],
      "name": "claim",
      "outputs": [],
      "stateMutability": "nonpayable",
      "type": "function"
    },
    {
      "inputs": [
        {
          "internalType": "uint256",
          "name": "tokenId",
          "type": "uint256"
        }
      ],
      "name": "getApproved",
      "outputs": [
        {
          "internalType": "address",
          "name": "",
          "type": "address"
        }
      ],
      "stateMutability": "view",
      "type": "function"
    },
    {
      "inputs": [
        {
          "internalType": "address",
          "name": "owner",
          "type": "address"
        },
        {
          "internalType": "address",
          "name": "operator",
          "type": "address"
        }
      ],
      "name": "isApprovedForAll",
      "outputs": [
        {
          "internalType": "bool",
          "name": "",
          "type": "bool"
        }
      ],
      "stateMutability": "view",
      "type": "function"
    },
    {
      "inputs": [],
      "name": "name",
      "outputs": [
        {
          "internalType": "string",
          "name": "",
          "type": "string"
        }
      ],
      "stateMutability": "view",
      "type": "function"
    },
    {
      "inputs": [],
      "name": "owner",
      "outputs": [
        {
          "internalType": "address",
          "name": "",
          "type": "address"
        }
      ],
      "stateMutability": "view",
      "type": "function"
    },
    {
      "inputs": [
        {
          "internalType": "uint256",
          "name": "tokenId",
          "type": "uint256"
        }
      ],
      "name": "ownerOf",
      "outputs": [
        {
          "internalType": "address",
          "name": "",
          "type": "address"
        }
      ],
      "stateMutability": "view",
      "type": "function"
    },
    {
      "inputs": [],
      "name": "renounceOwnership",
      "outputs": [],
      "stateMutability": "nonpayable",
      "type": "function"
    },
    {
      "inputs": [
        {
          "internalType": "address",
          "name": "from",
          "type": "address"
        },
        {
          "internalType": "address",
          "name": "to",
          "type": "address"
        },
        {
          "internalType": "uint256",
          "name": "tokenId",
          "type": "uint256"
        }
      ],
      "name": "safeTransferFrom",
      "outputs": [],
      "stateMutability": "nonpayable",
      "type": "function"
    },
    {
      "inputs": [
        {
          "internalType": "address",
          "name": "from",
          "type": "address"
        },
        {
          "internalType": "address",
          "name": "to",
          "type": "address"
        },
        {
          "internalType": "uint256",
          "name": "tokenId",
          "type": "uint256"
        },
        {
          "internalType": "bytes",
          "name": "_data",
          "type": "bytes"
        }
      ],
      "name": "safeTransferFrom",
      "outputs": [],
      "stateMutability": "nonpayable",
      "type": "function"
    },
    {
      "inputs": [
        {
          "internalType": "address",
          "name": "operator",
          "type": "address"
        },
        {
          "internalType": "bool",
          "name": "approved",
          "type": "bool"
        }
      ],
      "name": "setApprovalForAll",
      "outputs": [],
      "stateMutability": "nonpayable",
      "type": "function"
    },
    {
      "inputs": [
        {
          "internalType": "string",
          "name": "_uri",
          "type": "string"
        }
      ],
      "name": "setBaseURI",
      "outputs": [],
      "stateMutability": "nonpayable",
      "type": "function"
    },
    {
      "inputs": [
        {
          "internalType": "bool",
          "name": "_isOpenSeaProxyActive",
          "type": "bool"
        }
      ],
      "name": "setIsOpenSeaProxyActive",
      "outputs": [],
      "stateMutability": "nonpayable",
      "type": "function"
    },
    {
      "inputs": [
        {
          "internalType": "address",
          "name": "_openSeaProxyRegistryAddress",
          "type": "address"
        }
      ],
      "name": "setOpenSeaProxyRegistryAddress",
      "outputs": [],
      "stateMutability": "nonpayable",
      "type": "function"
    },
    {
      "inputs": [],
      "name": "supply",
      "outputs": [
        {
          "internalType": "uint16",
          "name": "",
          "type": "uint16"
        }
      ],
      "stateMutability": "view",
      "type": "function"
    },
    {
      "inputs": [
        {
          "internalType": "bytes4",
          "name": "interfaceId",
          "type": "bytes4"
        }
      ],
      "name": "supportsInterface",
      "outputs": [
        {
          "internalType": "bool",
          "name": "",
          "type": "bool"
        }
      ],
      "stateMutability": "view",
      "type": "function"
    },
    {
      "inputs": [],
      "name": "symbol",
      "outputs": [
        {
          "internalType": "string",
          "name": "",
          "type": "string"
        }
      ],
      "stateMutability": "view",
      "type": "function"
    },
    {
      "inputs": [],
      "name": "tokenCount",
      "outputs": [
        {
          "internalType": "uint16",
          "name": "",
          "type": "uint16"
        }
      ],
      "stateMutability": "view",
      "type": "function"
    },
    {
      "inputs": [
        {
          "internalType": "uint256",
          "name": "tokenId",
          "type": "uint256"
        }
      ],
      "name": "tokenURI",
      "outputs": [
        {
          "internalType": "string",
          "name": "",
          "type": "string"
        }
      ],
      "stateMutability": "view",
      "type": "function"
    },
    {
      "inputs": [
        {
          "internalType": "address",
          "name": "from",
          "type": "address"
        },
        {
          "internalType": "address",
          "name": "to",
          "type": "address"
        },
        {
          "internalType": "uint256",
          "name": "tokenId",
          "type": "uint256"
        }
      ],
      "name": "transferFrom",
      "outputs": [],
      "stateMutability": "nonpayable",
      "type": "function"
    },
    {
      "inputs": [
        {
          "internalType": "address",
          "name": "newOwner",
          "type": "address"
        }
      ],
      "name": "transferOwnership",
      "outputs": [],
      "stateMutability": "nonpayable",
      "type": "function"
    },
    {
      "inputs": [
        {
          "internalType": "address",
          "name": "",
          "type": "address"
        }
      ],
      "name": "userClaims",
      "outputs": [
        {
          "internalType": "uint8",
          "name": "",
          "type": "uint8"
        }
      ],
      "stateMutability": "view",
      "type": "function"
    }
  ],
  "bytecode": "0x6006805460ff60a01b19169055610100604052601760c08190527f697066733a2f2f3c696e7365727469706673686173682f00000000000000000060e09081526200004e9160079190620001c6565b506008805461ffff60ff60b01b011916600160b01b1790556119d86080527f0f30c586062ec23b3fae4dec68bfbd8a88bcd4fe51c80f820fd3d2a36386f27a60a0523480156200009d57600080fd5b506040516200264c3803806200264c833981016040819052620000c0916200026c565b6040518060600160405280602381526020016200262960239139604051806040016040528060048152602001632820a19960e11b81525081600090805190602001906200010f929190620001c6565b50805162000125906001906020840190620001c6565b505050620001426200013c6200017060201b60201c565b62000174565b600880546001600160a01b03909216620100000262010000600160b01b0319909216919091179055620002db565b3390565b600680546001600160a01b038381166001600160a01b0319831681179093556040519116919082907f8be0079c531659141344cd1fd0a4f28419497f9722a3daafe3b4186f6b6457e090600090a35050565b828054620001d4906200029e565b90600052602060002090601f016020900481019282620001f8576000855562000243565b82601f106200021357805160ff191683800117855562000243565b8280016001018555821562000243579182015b828111156200024357825182559160200191906001019062000226565b506200025192915062000255565b5090565b5b8082111562000251576000815560010162000256565b6000602082840312156200027f57600080fd5b81516001600160a01b03811681146200029757600080fd5b9392505050565b600181811c90821680620002b357607f821691505b60208210811415620002d557634e487b7160e01b600052602260045260246000fd5b50919050565b60805160a05161231a6200030f6000396000818161028d01528181610a340152610ff7015260006101eb015261231a6000f3fe608060405234801561001057600080fd5b50600436106101b95760003560e01c806370a08231116100f9578063c87b56dd11610097578063e985e9c511610071578063e985e9c5146103c5578063ec9b1d60146103d8578063f0a3563c146103eb578063f2fde38b1461042057600080fd5b8063c87b56dd14610397578063d547cfb7146103aa578063e43082f7146103b257600080fd5b806395d89b41116100d357806395d89b411461035b5780639f181b5e14610363578063a22cb46514610371578063b88d4fde1461038457600080fd5b806370a082311461032f578063715018a6146103425780638da5cb5b1461034a57600080fd5b8063132d3f6a1161016657806342966c681161014057806342966c68146102e357806355f804b3146102f65780636352211e146103095780636b79b7451461031c57600080fd5b8063132d3f6a1461028857806323b872dd146102bd57806342842e0e146102d057600080fd5b8063081812fc11610197578063081812fc1461023557806308abf02614610260578063095ea7b31461027557600080fd5b806301ffc9a7146101be578063047fc9aa146101e657806306fdde0314610220575b600080fd5b6101d16101cc366004611c2a565b610433565b60405190151581526020015b60405180910390f35b61020d7f000000000000000000000000000000000000000000000000000000000000000081565b60405161ffff90911681526020016101dd565b6102286104d0565b6040516101dd9190611c9b565b610248610243366004611cae565b610562565b6040516001600160a01b0390911681526020016101dd565b61027361026e366004611cdc565b6105fc565b005b610273610283366004611cf9565b610696565b6102af7f000000000000000000000000000000000000000000000000000000000000000081565b6040519081526020016101dd565b6102736102cb366004611d25565b6107c8565b6102736102de366004611d25565b610850565b6102736102f1366004611cae565b61086b565b610273610304366004611e05565b6108cc565b610248610317366004611cae565b61093d565b6101d161032a366004611f03565b6109c8565b6102af61033d366004611cdc565b610a63565b610273610afd565b6006546001600160a01b0316610248565b610228610b63565b60085461020d9061ffff1681565b61027361037f366004611f73565b610b72565b610273610392366004611fa8565b610b7d565b6102286103a5366004611cae565b610c0b565b610228610cc0565b6102736103c0366004612028565b610d4e565b6101d16103d3366004612043565b610de1565b6102736103e636600461207c565b610edc565b61040e6103f9366004611cdc565b60096020526000908152604090205460ff1681565b60405160ff90911681526020016101dd565b61027361042e366004611cdc565b6111ab565b60006001600160e01b031982167f80ac58cd00000000000000000000000000000000000000000000000000000000148061049657506001600160e01b031982167f5b5e139f00000000000000000000000000000000000000000000000000000000145b806104ca57507f01ffc9a7000000000000000000000000000000000000000000000000000000006001600160e01b03198316145b92915050565b6060600080546104df906120e4565b80601f016020809104026020016040519081016040528092919081815260200182805461050b906120e4565b80156105585780601f1061052d57610100808354040283529160200191610558565b820191906000526020600020905b81548152906001019060200180831161053b57829003601f168201915b5050505050905090565b6000818152600260205260408120546001600160a01b03166105e05760405162461bcd60e51b815260206004820152602c60248201527f4552433732313a20617070726f76656420717565727920666f72206e6f6e657860448201526b34b9ba32b73a103a37b5b2b760a11b60648201526084015b60405180910390fd5b506000908152600460205260409020546001600160a01b031690565b6006546001600160a01b031633146106565760405162461bcd60e51b815260206004820181905260248201527f4f776e61626c653a2063616c6c6572206973206e6f7420746865206f776e657260448201526064016105d7565b600880546001600160a01b0390921662010000027fffffffffffffffffffff0000000000000000000000000000000000000000ffff909216919091179055565b60006106a18261093d565b9050806001600160a01b0316836001600160a01b0316141561072b5760405162461bcd60e51b815260206004820152602160248201527f4552433732313a20617070726f76616c20746f2063757272656e74206f776e6560448201527f720000000000000000000000000000000000000000000000000000000000000060648201526084016105d7565b336001600160a01b038216148061074757506107478133610de1565b6107b95760405162461bcd60e51b815260206004820152603860248201527f4552433732313a20617070726f76652063616c6c6572206973206e6f74206f7760448201527f6e6572206e6f7220617070726f76656420666f7220616c6c000000000000000060648201526084016105d7565b6107c3838361128a565b505050565b6107d3335b826112f8565b6108455760405162461bcd60e51b815260206004820152603160248201527f4552433732313a207472616e736665722063616c6c6572206973206e6f74206f60448201527f776e6572206e6f7220617070726f76656400000000000000000000000000000060648201526084016105d7565b6107c38383836113c7565b6107c383838360405180602001604052806000815250610b7d565b610874336107cd565b6108c05760405162461bcd60e51b815260206004820181905260248201527f63616c6c6572206973206e6f74206f776e6572206e6f7220617070726f76656460448201526064016105d7565b6108c981611594565b50565b6006546001600160a01b031633146109265760405162461bcd60e51b815260206004820181905260248201527f4f776e61626c653a2063616c6c6572206973206e6f7420746865206f776e657260448201526064016105d7565b8051610939906007906020840190611b7b565b5050565b6000818152600260205260408120546001600160a01b0316806104ca5760405162461bcd60e51b815260206004820152602960248201527f4552433732313a206f776e657220717565727920666f72206e6f6e657869737460448201527f656e7420746f6b656e000000000000000000000000000000000000000000000060648201526084016105d7565b6040516bffffffffffffffffffffffff19606085901b1660208201527fff000000000000000000000000000000000000000000000000000000000000008216603482015260009081906035016040516020818303038152906040528051906020012090506000610a59857f00000000000000000000000000000000000000000000000000000000000000008461162f565b9695505050505050565b60006001600160a01b038216610ae15760405162461bcd60e51b815260206004820152602a60248201527f4552433732313a2062616c616e636520717565727920666f7220746865207a6560448201527f726f20616464726573730000000000000000000000000000000000000000000060648201526084016105d7565b506001600160a01b031660009081526003602052604090205490565b6006546001600160a01b03163314610b575760405162461bcd60e51b815260206004820181905260248201527f4f776e61626c653a2063616c6c6572206973206e6f7420746865206f776e657260448201526064016105d7565b610b616000611645565b565b6060600180546104df906120e4565b610939338383611697565b610b8733836112f8565b610bf95760405162461bcd60e51b815260206004820152603160248201527f4552433732313a207472616e736665722063616c6c6572206973206e6f74206f60448201527f776e6572206e6f7220617070726f76656400000000000000000000000000000060648201526084016105d7565b610c0584848484611766565b50505050565b6000818152600260205260409020546060906001600160a01b0316610c985760405162461bcd60e51b815260206004820152602f60248201527f4552433732314d657461646174613a2055524920717565727920666f72206e6f60448201527f6e6578697374656e7420746f6b656e000000000000000000000000000000000060648201526084016105d7565b6007604051602001610caa919061211f565b6040516020818303038152906040529050919050565b60078054610ccd906120e4565b80601f0160208091040260200160405190810160405280929190818152602001828054610cf9906120e4565b8015610d465780601f10610d1b57610100808354040283529160200191610d46565b820191906000526020600020905b815481529060010190602001808311610d2957829003601f168201915b505050505081565b6006546001600160a01b03163314610da85760405162461bcd60e51b815260206004820181905260248201527f4f776e61626c653a2063616c6c6572206973206e6f7420746865206f776e657260448201526064016105d7565b60088054911515600160b01b027fffffffffffffffffff00ffffffffffffffffffffffffffffffffffffffffffff909216919091179055565b6008546000906201000081046001600160a01b031690600160b01b900460ff168015610e9b57506040517fc45527910000000000000000000000000000000000000000000000000000000081526001600160a01b038581166004830152808516919083169063c455279190602401602060405180830381865afa158015610e6c573d6000803e3d6000fd5b505050506040513d601f19601f82011682018060405250810190610e9091906121bb565b6001600160a01b0316145b15610eaa5760019150506104ca565b6001600160a01b0380851660009081526005602090815260408083209387168352929052205460ff165b949350505050565b600654600160a01b900460ff1615610f365760405162461bcd60e51b815260206004820181905260248201527f63616e6e6f74207265656e7465722061206c6f636b65642066756e6374696f6e60448201526064016105d7565b6006805460ff60a01b1916600160a01b179055610f5860f883901c60016121ee565b60ff168160ff1610610fac5760405162461bcd60e51b815260206004820152601260248201527f416c6c6f77616e6365206578636565646564000000000000000000000000000060448201526064016105d7565b6040516bffffffffffffffffffffffff193360601b1660208201527fff00000000000000000000000000000000000000000000000000000000000000831660348201526110359084907f0000000000000000000000000000000000000000000000000000000000000000906035016040516020818303038152906040528051906020012061162f565b6110815760405162461bcd60e51b815260206004820152600c60248201527f556e617574686f72697a6564000000000000000000000000000000000000000060448201526064016105d7565b61109060f883901c60016121ee565b3360009081526009602052604090205460ff918216916110b2918491166121ee565b60ff16106111025760405162461bcd60e51b815260206004820152601660248201527f45786365656473207573657220616c6c6f77616e63650000000000000000000060448201526064016105d7565b336000908152600960205260408120805483929061112490849060ff166121ee565b92506101000a81548160ff021916908360ff16021790555060005b8160ff1681101561119857600880546111869133916000906111649061ffff16612213565b91906101000a81548161ffff021916908361ffff160217905561ffff166117e4565b8061119081612235565b91505061113f565b50506006805460ff60a01b191690555050565b6006546001600160a01b031633146112055760405162461bcd60e51b815260206004820181905260248201527f4f776e61626c653a2063616c6c6572206973206e6f7420746865206f776e657260448201526064016105d7565b6001600160a01b0381166112815760405162461bcd60e51b815260206004820152602660248201527f4f776e61626c653a206e6577206f776e657220697320746865207a65726f206160448201527f646472657373000000000000000000000000000000000000000000000000000060648201526084016105d7565b6108c981611645565b600081815260046020526040902080546001600160a01b0319166001600160a01b03841690811790915581906112bf8261093d565b6001600160a01b03167f8c5be1e5ebec7d5bd14f71427d1e84f3dd0314c0f7b2291e5b200ac8c7c3b92560405160405180910390a45050565b6000818152600260205260408120546001600160a01b03166113715760405162461bcd60e51b815260206004820152602c60248201527f4552433732313a206f70657261746f7220717565727920666f72206e6f6e657860448201526b34b9ba32b73a103a37b5b2b760a11b60648201526084016105d7565b600061137c8361093d565b9050806001600160a01b0316846001600160a01b031614806113b75750836001600160a01b03166113ac84610562565b6001600160a01b0316145b80610ed45750610ed48185610de1565b826001600160a01b03166113da8261093d565b6001600160a01b0316146114565760405162461bcd60e51b815260206004820152602960248201527f4552433732313a207472616e73666572206f6620746f6b656e2074686174206960448201527f73206e6f74206f776e000000000000000000000000000000000000000000000060648201526084016105d7565b6001600160a01b0382166114d15760405162461bcd60e51b8152602060048201526024808201527f4552433732313a207472616e7366657220746f20746865207a65726f2061646460448201527f726573730000000000000000000000000000000000000000000000000000000060648201526084016105d7565b6114dc60008261128a565b6001600160a01b0383166000908152600360205260408120805460019290611505908490612250565b90915550506001600160a01b0382166000908152600360205260408120805460019290611533908490612267565b909155505060008181526002602052604080822080546001600160a01b0319166001600160a01b0386811691821790925591518493918716917fddf252ad1be2c89b69c2b068fc378daa952ba7f163c4a11628f55a4df523b3ef91a4505050565b600061159f8261093d565b90506115ac60008361128a565b6001600160a01b03811660009081526003602052604081208054600192906115d5908490612250565b909155505060008281526002602052604080822080546001600160a01b0319169055518391906001600160a01b038416907fddf252ad1be2c89b69c2b068fc378daa952ba7f163c4a11628f55a4df523b3ef908390a45050565b60008261163c85846117fe565b14949350505050565b600680546001600160a01b038381166001600160a01b0319831681179093556040519116919082907f8be0079c531659141344cd1fd0a4f28419497f9722a3daafe3b4186f6b6457e090600090a35050565b816001600160a01b0316836001600160a01b031614156116f95760405162461bcd60e51b815260206004820152601960248201527f4552433732313a20617070726f766520746f2063616c6c65720000000000000060448201526064016105d7565b6001600160a01b03838116600081815260056020908152604080832094871680845294825291829020805460ff191686151590811790915591519182527f17307eab39ab6107e8899845ad3d59bd9653f200f220920489ca2b5937696c31910160405180910390a3505050565b6117718484846113c7565b61177d84848484611872565b610c055760405162461bcd60e51b815260206004820152603260248201527f4552433732313a207472616e7366657220746f206e6f6e20455243373231526560448201527131b2b4bb32b91034b6b83632b6b2b73a32b960711b60648201526084016105d7565b6109398282604051806020016040528060008152506119bb565b600081815b845181101561186a5760008582815181106118205761182061227f565b602002602001015190508083116118465760008381526020829052604090209250611857565b600081815260208490526040902092505b508061186281612235565b915050611803565b509392505050565b60006001600160a01b0384163b156119b057604051630a85bd0160e11b81526001600160a01b0385169063150b7a02906118b6903390899088908890600401612295565b6020604051808303816000875af19250505080156118f1575060408051601f3d908101601f191682019092526118ee918101906122c7565b60015b611996573d80801561191f576040519150601f19603f3d011682016040523d82523d6000602084013e611924565b606091505b50805161198e5760405162461bcd60e51b815260206004820152603260248201527f4552433732313a207472616e7366657220746f206e6f6e20455243373231526560448201527131b2b4bb32b91034b6b83632b6b2b73a32b960711b60648201526084016105d7565b805181602001fd5b6001600160e01b031916630a85bd0160e11b149050610ed4565b506001949350505050565b6119c58383611a39565b6119d26000848484611872565b6107c35760405162461bcd60e51b815260206004820152603260248201527f4552433732313a207472616e7366657220746f206e6f6e20455243373231526560448201527131b2b4bb32b91034b6b83632b6b2b73a32b960711b60648201526084016105d7565b6001600160a01b038216611a8f5760405162461bcd60e51b815260206004820181905260248201527f4552433732313a206d696e7420746f20746865207a65726f206164647265737360448201526064016105d7565b6000818152600260205260409020546001600160a01b031615611af45760405162461bcd60e51b815260206004820152601c60248201527f4552433732313a20746f6b656e20616c7265616479206d696e7465640000000060448201526064016105d7565b6001600160a01b0382166000908152600360205260408120805460019290611b1d908490612267565b909155505060008181526002602052604080822080546001600160a01b0319166001600160a01b03861690811790915590518392907fddf252ad1be2c89b69c2b068fc378daa952ba7f163c4a11628f55a4df523b3ef908290a45050565b828054611b87906120e4565b90600052602060002090601f016020900481019282611ba95760008555611bef565b82601f10611bc257805160ff1916838001178555611bef565b82800160010185558215611bef579182015b82811115611bef578251825591602001919060010190611bd4565b50611bfb929150611bff565b5090565b5b80821115611bfb5760008155600101611c00565b6001600160e01b0319811681146108c957600080fd5b600060208284031215611c3c57600080fd5b8135611c4781611c14565b9392505050565b6000815180845260005b81811015611c7457602081850181015186830182015201611c58565b81811115611c86576000602083870101525b50601f01601f19169290920160200192915050565b602081526000611c476020830184611c4e565b600060208284031215611cc057600080fd5b5035919050565b6001600160a01b03811681146108c957600080fd5b600060208284031215611cee57600080fd5b8135611c4781611cc7565b60008060408385031215611d0c57600080fd5b8235611d1781611cc7565b946020939093013593505050565b600080600060608486031215611d3a57600080fd5b8335611d4581611cc7565b92506020840135611d5581611cc7565b929592945050506040919091013590565b634e487b7160e01b600052604160045260246000fd5b604051601f8201601f1916810167ffffffffffffffff81118282101715611da557611da5611d66565b604052919050565b600067ffffffffffffffff831115611dc757611dc7611d66565b611dda601f8401601f1916602001611d7c565b9050828152838383011115611dee57600080fd5b828260208301376000602084830101529392505050565b600060208284031215611e1757600080fd5b813567ffffffffffffffff811115611e2e57600080fd5b8201601f81018413611e3f57600080fd5b610ed484823560208401611dad565b600082601f830112611e5f57600080fd5b8135602067ffffffffffffffff821115611e7b57611e7b611d66565b8160051b611e8a828201611d7c565b9283528481018201928281019087851115611ea457600080fd5b83870192505b84831015611ec357823582529183019190830190611eaa565b979650505050505050565b80357fff0000000000000000000000000000000000000000000000000000000000000081168114611efe57600080fd5b919050565b600080600060608486031215611f1857600080fd5b8335611f2381611cc7565b9250602084013567ffffffffffffffff811115611f3f57600080fd5b611f4b86828701611e4e565b925050611f5a60408501611ece565b90509250925092565b80358015158114611efe57600080fd5b60008060408385031215611f8657600080fd5b8235611f9181611cc7565b9150611f9f60208401611f63565b90509250929050565b60008060008060808587031215611fbe57600080fd5b8435611fc981611cc7565b93506020850135611fd981611cc7565b925060408501359150606085013567ffffffffffffffff811115611ffc57600080fd5b8501601f8101871361200d57600080fd5b61201c87823560208401611dad565b91505092959194509250565b60006020828403121561203a57600080fd5b611c4782611f63565b6000806040838503121561205657600080fd5b823561206181611cc7565b9150602083013561207181611cc7565b809150509250929050565b60008060006060848603121561209157600080fd5b833567ffffffffffffffff8111156120a857600080fd5b6120b486828701611e4e565b9350506120c360208501611ece565b9150604084013560ff811681146120d957600080fd5b809150509250925092565b600181811c908216806120f857607f821691505b6020821081141561211957634e487b7160e01b600052602260045260246000fd5b50919050565b600080835481600182811c91508083168061213b57607f831692505b602080841082141561215b57634e487b7160e01b86526022600452602486fd5b81801561216f5760018114612180576121ad565b60ff198616895284890196506121ad565b60008a81526020902060005b868110156121a55781548b82015290850190830161218c565b505084890196505b509498975050505050505050565b6000602082840312156121cd57600080fd5b8151611c4781611cc7565b634e487b7160e01b600052601160045260246000fd5b600060ff821660ff84168060ff0382111561220b5761220b6121d8565b019392505050565b600061ffff8083168181141561222b5761222b6121d8565b6001019392505050565b6000600019821415612249576122496121d8565b5060010190565b600082821015612262576122626121d8565b500390565b6000821982111561227a5761227a6121d8565b500190565b634e487b7160e01b600052603260045260246000fd5b60006001600160a01b03808716835280861660208401525083604083015260806060830152610a596080830184611c4e565b6000602082840312156122d957600080fd5b8151611c4781611c1456fea2646970667358221220ff058929d3697d9c1247eda275088a39a120d129b44fd15214c5385f79ab1f8464736f6c634300080a003350737963686564656c69637320416e6f6e796d6f757320436f6d706f6e656e74202332",
  "linkReferences": {},
  "deployedLinkReferences": {}
}