{
  "_format": "hh-sol-artifact-1",
  "contractName": "GenesisNFT",
  "sourceName": "contracts/GenesisNFT.sol",
  "abi": [
    {
      "inputs": [
        {
          "internalType": "address",
          "name": "_openSeaProxyRegistryAddress",
          "type": "address"
        },
        {
          "internalType": "uint256",
          "name": "_supply",
          "type": "uint256"
        },
        {
          "internalType": "uint256",
          "name": "_giveawaySupply",
          "type": "uint256"
        }
      ],
      "stateMutability": "nonpayable",
      "type": "constructor"
    },
    {
      "anonymous": false,
      "inputs": [
        {
          "indexed": true,
          "internalType": "address",
          "name": "owner",
          "type": "address"
        },
        {
          "indexed": true,
          "internalType": "address",
          "name": "approved",
          "type": "address"
        },
        {
          "indexed": true,
          "internalType": "uint256",
          "name": "tokenId",
          "type": "uint256"
        }
      ],
      "name": "Approval",
      "type": "event"
    },
    {
      "anonymous": false,
      "inputs": [
        {
          "indexed": true,
          "internalType": "address",
          "name": "owner",
          "type": "address"
        },
        {
          "indexed": true,
          "internalType": "address",
          "name": "operator",
          "type": "address"
        },
        {
          "indexed": false,
          "internalType": "bool",
          "name": "approved",
          "type": "bool"
        }
      ],
      "name": "ApprovalForAll",
      "type": "event"
    },
    {
      "anonymous": false,
      "inputs": [
        {
          "indexed": true,
          "internalType": "address",
          "name": "to",
          "type": "address"
        },
        {
          "indexed": false,
          "internalType": "string",
          "name": "failure",
          "type": "string"
        }
      ],
      "name": "MintFailure",
      "type": "event"
    },
    {
      "anonymous": false,
      "inputs": [
        {
          "indexed": true,
          "internalType": "address",
          "name": "previousOwner",
          "type": "address"
        },
        {
          "indexed": true,
          "internalType": "address",
          "name": "newOwner",
          "type": "address"
        }
      ],
      "name": "OwnershipTransferred",
      "type": "event"
    },
    {
      "anonymous": false,
      "inputs": [
        {
          "indexed": true,
          "internalType": "address",
          "name": "from",
          "type": "address"
        },
        {
          "indexed": true,
          "internalType": "address",
          "name": "to",
          "type": "address"
        },
        {
          "indexed": true,
          "internalType": "uint256",
          "name": "tokenId",
          "type": "uint256"
        }
      ],
      "name": "Transfer",
      "type": "event"
    },
    {
      "inputs": [],
      "name": "MERCH_PASS_PRICE",
      "outputs": [
        {
          "internalType": "uint256",
          "name": "",
          "type": "uint256"
        }
      ],
      "stateMutability": "view",
      "type": "function"
    },
    {
      "inputs": [],
      "name": "META_PASS_PRICE",
      "outputs": [
        {
          "internalType": "uint256",
          "name": "",
          "type": "uint256"
        }
      ],
      "stateMutability": "view",
      "type": "function"
    },
    {
      "inputs": [],
      "name": "PRE_SALE_LIMIT",
      "outputs": [
        {
          "internalType": "uint256",
          "name": "",
          "type": "uint256"
        }
      ],
      "stateMutability": "view",
      "type": "function"
    },
    {
      "inputs": [],
      "name": "PRICE",
      "outputs": [
        {
          "internalType": "uint256",
          "name": "",
          "type": "uint256"
        }
      ],
      "stateMutability": "view",
      "type": "function"
    },
    {
      "inputs": [],
      "name": "PUBLIC_LIMIT",
      "outputs": [
        {
          "internalType": "uint256",
          "name": "",
          "type": "uint256"
        }
      ],
      "stateMutability": "view",
      "type": "function"
    },
    {
      "inputs": [],
      "name": "UTILITY_PASS_PRICE",
      "outputs": [
        {
          "internalType": "uint256",
          "name": "",
          "type": "uint256"
        }
      ],
      "stateMutability": "view",
      "type": "function"
    },
    {
      "inputs": [
        {
          "internalType": "address",
          "name": "to",
          "type": "address"
        },
        {
          "internalType": "uint256",
          "name": "tokenId",
          "type": "uint256"
        }
      ],
      "name": "approve",
      "outputs": [],
      "stateMutability": "nonpayable",
      "type": "function"
    },
    {
      "inputs": [
        {
          "internalType": "address",
          "name": "owner",
          "type": "address"
        }
      ],
      "name": "balanceOf",
      "outputs": [
        {
          "internalType": "uint256",
          "name": "",
          "type": "uint256"
        }
      ],
      "stateMutability": "view",
      "type": "function"
    },
    {
      "inputs": [],
      "name": "baseTokenURI",
      "outputs": [
        {
          "internalType": "string",
          "name": "",
          "type": "string"
        }
      ],
      "stateMutability": "view",
      "type": "function"
    },
    {
      "inputs": [
        {
          "internalType": "uint256",
          "name": "tokenId",
          "type": "uint256"
        }
      ],
      "name": "getApproved",
      "outputs": [
        {
          "internalType": "address",
          "name": "",
          "type": "address"
        }
      ],
      "stateMutability": "view",
      "type": "function"
    },
    {
      "inputs": [
        {
          "internalType": "address",
          "name": "_to",
          "type": "address"
        },
        {
          "internalType": "uint256",
          "name": "_amount",
          "type": "uint256"
        }
      ],
      "name": "giveaway",
      "outputs": [],
      "stateMutability": "nonpayable",
      "type": "function"
    },
    {
      "inputs": [],
      "name": "giveawaySupply",
      "outputs": [
        {
          "internalType": "uint256",
          "name": "",
          "type": "uint256"
        }
      ],
      "stateMutability": "view",
      "type": "function"
    },
    {
      "inputs": [
        {
          "internalType": "address",
          "name": "owner",
          "type": "address"
        },
        {
          "internalType": "address",
          "name": "operator",
          "type": "address"
        }
      ],
      "name": "isApprovedForAll",
      "outputs": [
        {
          "internalType": "bool",
          "name": "",
          "type": "bool"
        }
      ],
      "stateMutability": "view",
      "type": "function"
    },
    {
      "inputs": [],
      "name": "isSoldOut",
      "outputs": [
        {
          "internalType": "bool",
          "name": "",
          "type": "bool"
        }
      ],
      "stateMutability": "view",
      "type": "function"
    },
    {
      "inputs": [],
      "name": "merchPassAddress",
      "outputs": [
        {
          "internalType": "address",
          "name": "",
          "type": "address"
        }
      ],
      "stateMutability": "view",
      "type": "function"
    },
    {
      "inputs": [],
      "name": "merkleRoot",
      "outputs": [
        {
          "internalType": "bytes32",
          "name": "",
          "type": "bytes32"
        }
      ],
      "stateMutability": "view",
      "type": "function"
    },
    {
      "inputs": [],
      "name": "metaPassAddress",
      "outputs": [
        {
          "internalType": "address",
          "name": "",
          "type": "address"
        }
      ],
      "stateMutability": "view",
      "type": "function"
    },
    {
      "inputs": [
        {
          "internalType": "bytes32[]",
          "name": "_proof",
          "type": "bytes32[]"
        },
        {
          "internalType": "uint256",
          "name": "_genesisAmount",
          "type": "uint256"
        },
        {
          "internalType": "uint256",
          "name": "_merchAmount",
          "type": "uint256"
        },
        {
          "internalType": "uint256",
          "name": "_metaAmount",
          "type": "uint256"
        },
        {
          "internalType": "uint256",
          "name": "_utilityAmount",
          "type": "uint256"
        }
      ],
      "name": "mint",
      "outputs": [],
      "stateMutability": "payable",
      "type": "function"
    },
    {
      "inputs": [],
      "name": "mintStatus",
      "outputs": [
        {
          "internalType": "enum GenesisNFT.MintStatus",
          "name": "",
          "type": "uint8"
        }
      ],
      "stateMutability": "view",
      "type": "function"
    },
    {
      "inputs": [],
      "name": "mintableSupply",
      "outputs": [
        {
          "internalType": "uint256",
          "name": "",
          "type": "uint256"
        }
      ],
      "stateMutability": "view",
      "type": "function"
    },
    {
      "inputs": [],
      "name": "name",
      "outputs": [
        {
          "internalType": "string",
          "name": "",
          "type": "string"
        }
      ],
      "stateMutability": "view",
      "type": "function"
    },
    {
      "inputs": [],
      "name": "owner",
      "outputs": [
        {
          "internalType": "address",
          "name": "",
          "type": "address"
        }
      ],
      "stateMutability": "view",
      "type": "function"
    },
    {
      "inputs": [
        {
          "internalType": "uint256",
          "name": "tokenId",
          "type": "uint256"
        }
      ],
      "name": "ownerOf",
      "outputs": [
        {
          "internalType": "address",
          "name": "",
          "type": "address"
        }
      ],
      "stateMutability": "view",
      "type": "function"
    },
    {
      "inputs": [],
      "name": "renounceOwnership",
      "outputs": [],
      "stateMutability": "nonpayable",
      "type": "function"
    },
    {
      "inputs": [
        {
          "internalType": "uint256",
          "name": "tokenId",
          "type": "uint256"
        },
        {
          "internalType": "uint256",
          "name": "salePrice",
          "type": "uint256"
        }
      ],
      "name": "royaltyInfo",
      "outputs": [
        {
          "internalType": "address",
          "name": "receiver",
          "type": "address"
        },
        {
          "internalType": "uint256",
          "name": "royaltyAmount",
          "type": "uint256"
        }
      ],
      "stateMutability": "view",
      "type": "function"
    },
    {
      "inputs": [
        {
          "internalType": "address",
          "name": "from",
          "type": "address"
        },
        {
          "internalType": "address",
          "name": "to",
          "type": "address"
        },
        {
          "internalType": "uint256",
          "name": "tokenId",
          "type": "uint256"
        }
      ],
      "name": "safeTransferFrom",
      "outputs": [],
      "stateMutability": "nonpayable",
      "type": "function"
    },
    {
      "inputs": [
        {
          "internalType": "address",
          "name": "from",
          "type": "address"
        },
        {
          "internalType": "address",
          "name": "to",
          "type": "address"
        },
        {
          "internalType": "uint256",
          "name": "tokenId",
          "type": "uint256"
        },
        {
          "internalType": "bytes",
          "name": "_data",
          "type": "bytes"
        }
      ],
      "name": "safeTransferFrom",
      "outputs": [],
      "stateMutability": "nonpayable",
      "type": "function"
    },
    {
      "inputs": [
        {
          "internalType": "address",
          "name": "operator",
          "type": "address"
        },
        {
          "internalType": "bool",
          "name": "approved",
          "type": "bool"
        }
      ],
      "name": "setApprovalForAll",
      "outputs": [],
      "stateMutability": "nonpayable",
      "type": "function"
    },
    {
      "inputs": [
        {
          "internalType": "string",
          "name": "_uri",
          "type": "string"
        }
      ],
      "name": "setBaseURI",
      "outputs": [],
      "stateMutability": "nonpayable",
      "type": "function"
    },
    {
      "inputs": [
        {
          "internalType": "bool",
          "name": "_isOpenSeaProxyActive",
          "type": "bool"
        }
      ],
      "name": "setIsOpenSeaProxyActive",
      "outputs": [],
      "stateMutability": "nonpayable",
      "type": "function"
    },
    {
      "inputs": [
        {
          "internalType": "address",
          "name": "_merchPassAddress",
          "type": "address"
        }
      ],
      "name": "setMerchPassAddress",
      "outputs": [],
      "stateMutability": "nonpayable",
      "type": "function"
    },
    {
      "inputs": [
        {
          "internalType": "bytes32",
          "name": "_merkleRoot",
          "type": "bytes32"
        }
      ],
      "name": "setMerkleRoot",
      "outputs": [],
      "stateMutability": "nonpayable",
      "type": "function"
    },
    {
      "inputs": [
        {
          "internalType": "address",
          "name": "_metaPassAddress",
          "type": "address"
        }
      ],
      "name": "setMetaPassAddress",
      "outputs": [],
      "stateMutability": "nonpayable",
      "type": "function"
    },
    {
      "inputs": [
        {
          "internalType": "address",
          "name": "_openSeaProxyRegistryAddress",
          "type": "address"
        }
      ],
      "name": "setOpenSeaProxyRegistryAddress",
      "outputs": [],
      "stateMutability": "nonpayable",
      "type": "function"
    },
    {
      "inputs": [
        {
          "internalType": "uint256",
          "name": "_divisor",
          "type": "uint256"
        }
      ],
      "name": "setRoyaltyDivisor",
      "outputs": [],
      "stateMutability": "nonpayable",
      "type": "function"
    },
    {
      "inputs": [
        {
          "internalType": "uint8",
          "name": "_status",
          "type": "uint8"
        }
      ],
      "name": "setStatus",
      "outputs": [],
      "stateMutability": "nonpayable",
      "type": "function"
    },
    {
      "inputs": [
        {
          "internalType": "address",
          "name": "_utilityPassAddress",
          "type": "address"
        }
      ],
      "name": "setUtilityPassAddress",
      "outputs": [],
      "stateMutability": "nonpayable",
      "type": "function"
    },
    {
      "inputs": [
        {
          "internalType": "address",
          "name": "_dest1",
          "type": "address"
        },
        {
          "internalType": "address",
          "name": "_dest2",
          "type": "address"
        }
      ],
      "name": "setWithdrawDests",
      "outputs": [],
      "stateMutability": "nonpayable",
      "type": "function"
    },
    {
      "inputs": [],
      "name": "supply",
      "outputs": [
        {
          "internalType": "uint256",
          "name": "",
          "type": "uint256"
        }
      ],
      "stateMutability": "view",
      "type": "function"
    },
    {
      "inputs": [
        {
          "internalType": "bytes4",
          "name": "interfaceId",
          "type": "bytes4"
        }
      ],
      "name": "supportsInterface",
      "outputs": [
        {
          "internalType": "bool",
          "name": "",
          "type": "bool"
        }
      ],
      "stateMutability": "view",
      "type": "function"
    },
    {
      "inputs": [],
      "name": "symbol",
      "outputs": [
        {
          "internalType": "string",
          "name": "",
          "type": "string"
        }
      ],
      "stateMutability": "view",
      "type": "function"
    },
    {
      "inputs": [],
      "name": "tokenCount",
      "outputs": [
        {
          "internalType": "uint256",
          "name": "",
          "type": "uint256"
        }
      ],
      "stateMutability": "view",
      "type": "function"
    },
    {
      "inputs": [
        {
          "internalType": "uint256",
          "name": "tokenId",
          "type": "uint256"
        }
      ],
      "name": "tokenURI",
      "outputs": [
        {
          "internalType": "string",
          "name": "",
          "type": "string"
        }
      ],
      "stateMutability": "view",
      "type": "function"
    },
    {
      "inputs": [
        {
          "internalType": "address",
          "name": "from",
          "type": "address"
        },
        {
          "internalType": "address",
          "name": "to",
          "type": "address"
        },
        {
          "internalType": "uint256",
          "name": "tokenId",
          "type": "uint256"
        }
      ],
      "name": "transferFrom",
      "outputs": [],
      "stateMutability": "nonpayable",
      "type": "function"
    },
    {
      "inputs": [
        {
          "internalType": "address",
          "name": "newOwner",
          "type": "address"
        }
      ],
      "name": "transferOwnership",
      "outputs": [],
      "stateMutability": "nonpayable",
      "type": "function"
    },
    {
      "inputs": [],
      "name": "utilityPassAddress",
      "outputs": [
        {
          "internalType": "address",
          "name": "",
          "type": "address"
        }
      ],
      "stateMutability": "view",
      "type": "function"
    },
    {
      "inputs": [],
      "name": "withdraw",
      "outputs": [],
      "stateMutability": "nonpayable",
      "type": "function"
    },
    {
      "inputs": [],
      "name": "withdrawDest1",
      "outputs": [
        {
          "internalType": "address",
          "name": "",
          "type": "address"
        }
      ],
      "stateMutability": "view",
      "type": "function"
    },
    {
      "inputs": [],
      "name": "withdrawDest2",
      "outputs": [
        {
          "internalType": "address",
          "name": "",
          "type": "address"
        }
      ],
      "stateMutability": "view",
      "type": "function"
    }
  ],
  "bytecode": "0x60806040526008805460ff191690556000600a55600c80546001600160a01b031990811673b0b035d2e95d2c7820d58a56575b0c24ba8a964117909155600d80549091167327a05d42046eace2ed21282643b1530867ffb2bb1790557f71eb2b2e3c82409bb024f8b681245d3eea25dcfd0dc7bbe701ee18cf1e8ecbb1600e556015805460ff60a01b1916600160a01b179055601460165560fa601781905561257b6018819055620000b29190620002f4565b601955348015620000c257600080fd5b5060405162003c4238038062003c42833981016040819052620000e591620002b1565b6040518060400160405280601081526020016f141cde58da1959195b1a58dcc813919560821b815250604051806040016040528060058152602001640a0a6b286960db1b8152506200014662000140620001b760201b60201c565b620001bb565b81516200015b9060019060208501906200020b565b508051620001719060029060208401906200020b565b5050600160075550601580546001600160a01b0319166001600160a01b03851617905560188290556017819055620001aa8183620002f4565b6019555062000355915050565b3390565b600080546001600160a01b038381166001600160a01b0319831681178455604051919092169283917f8be0079c531659141344cd1fd0a4f28419497f9722a3daafe3b4186f6b6457e09190a35050565b828054620002199062000318565b90600052602060002090601f0160209004810192826200023d576000855562000288565b82601f106200025857805160ff191683800117855562000288565b8280016001018555821562000288579182015b82811115620002885782518255916020019190600101906200026b565b50620002969291506200029a565b5090565b5b808211156200029657600081556001016200029b565b600080600060608486031215620002c6578283fd5b83516001600160a01b0381168114620002dd578384fd5b602085015160409095015190969495509392505050565b6000828210156200031357634e487b7160e01b81526011600452602481fd5b500390565b600181811c908216806200032d57607f821691505b602082108114156200034f57634e487b7160e01b600052602260045260246000fd5b50919050565b6138dd80620003656000396000f3fe60806040526004361061031e5760003560e01c80637d843ba1116101a5578063c87b56dd116100ec578063dfde740511610095578063e985e9c51161006f578063e985e9c514610876578063f2fde38b14610896578063f431f199146108b6578063fec29cf1146108d157600080fd5b8063dfde740514610820578063e288e73314610840578063e43082f71461085657600080fd5b8063d547cfb7116100c6578063d547cfb7146107cb578063dccb8aaf146107e0578063de4f0c341461080057600080fd5b8063c87b56dd14610775578063cbc21b0814610795578063cc5c095c146107b557600080fd5b80639f181b5e1161014e578063b121439211610128578063b121439214610722578063b465ffe914610742578063b88d4fde1461075557600080fd5b80639f181b5e146106d7578063a22cb465146106ed578063a67d9c5e1461070d57600080fd5b806395d89b411161017f57806395d89b411461067b5780639ce5fee3146106905780639da3f8fd146106b057600080fd5b80637d843ba1146106215780638d859f3e146106415780638da5cb5b1461065d57600080fd5b80632da5ea17116102695780635b073f3b1161021257806370a08231116101ec57806370a08231146105cc578063715018a6146105ec5780637cb647591461060157600080fd5b80635b073f3b1461043857806361869a931461058c5780636352211e146105ac57600080fd5b80633ccfd60b116102435780633ccfd60b1461053757806342842e0e1461054c57806355f804b31461056c57600080fd5b80632da5ea17146104e75780632e49d78b146105015780632eb4a7ab1461052157600080fd5b8063095ea7b3116102cb5780631783830d116102a55780631783830d1461046857806323b872dd146104885780632a55205a146104a857600080fd5b8063095ea7b314610418578063125c02251461043857806313f6536a1461045357600080fd5b806306fdde03116102fc57806306fdde031461039e578063081812fc146103c057806308abf026146103f857600080fd5b806301ffc9a714610323578063047fc9aa14610358578063050225ea1461037c575b600080fd5b34801561032f57600080fd5b5061034361033e36600461353d565b6108f1565b60405190151581526020015b60405180910390f35b34801561036457600080fd5b5061036e60185481565b60405190815260200161034f565b34801561038857600080fd5b5061039c6103973660046133fb565b6109d6565b005b3480156103aa57600080fd5b506103b3610b43565b60405161034f91906136d8565b3480156103cc57600080fd5b506103e06103db366004613525565b610bd5565b6040516001600160a01b03909116815260200161034f565b34801561040457600080fd5b5061039c6104133660046132bd565b610c7b565b34801561042457600080fd5b5061039c6104333660046133fb565b610d04565b34801561044457600080fd5b5061036e66d529ae9e86000081565b34801561045f57600080fd5b5061036e600181565b34801561047457600080fd5b506010546103e0906001600160a01b031681565b34801561049457600080fd5b5061039c6104a3366004613311565b610e36565b3480156104b457600080fd5b506104c86104c33660046135d7565b610ebd565b604080516001600160a01b03909316835260208301919091520161034f565b3480156104f357600080fd5b50601954600a541015610343565b34801561050d57600080fd5b5061039c61051c3660046135f8565b610f44565b34801561052d57600080fd5b5061036e600e5481565b34801561054357600080fd5b5061039c610ff3565b34801561055857600080fd5b5061039c610567366004613311565b6110d2565b34801561057857600080fd5b5061039c610587366004613591565b6110ed565b34801561059857600080fd5b50600c546103e0906001600160a01b031681565b3480156105b857600080fd5b506103e06105c7366004613525565b61115a565b3480156105d857600080fd5b5061036e6105e73660046132bd565b6111e5565b3480156105f857600080fd5b5061039c61127f565b34801561060d57600080fd5b5061039c61061c366004613525565b6112e3565b34801561062d57600080fd5b5061039c61063c3660046132bd565b611342565b34801561064d57600080fd5b5061036e670138a388a43c000081565b34801561066957600080fd5b506000546001600160a01b03166103e0565b34801561068757600080fd5b506103b36113d5565b34801561069c57600080fd5b50600f546103e0906001600160a01b031681565b3480156106bc57600080fd5b506008546106ca9060ff1681565b60405161034f91906136b0565b3480156106e357600080fd5b5061036e600a5481565b3480156106f957600080fd5b5061039c6107083660046133ce565b6113e4565b34801561071957600080fd5b5061036e600281565b34801561072e57600080fd5b50600d546103e0906001600160a01b031681565b61039c610750366004613426565b6114a9565b34801561076157600080fd5b5061039c610770366004613351565b611d7f565b34801561078157600080fd5b506103b3610790366004613525565b611e0d565b3480156107a157600080fd5b5061039c6107b0366004613525565b611ef6565b3480156107c157600080fd5b5061036e60195481565b3480156107d757600080fd5b506103b3611f55565b3480156107ec57600080fd5b5061039c6107fb3660046132bd565b611fe3565b34801561080c57600080fd5b5061039c61081b3660046132bd565b612076565b34801561082c57600080fd5b5061039c61083b3660046132d9565b612109565b34801561084c57600080fd5b5061036e60175481565b34801561086257600080fd5b5061039c6108713660046134ed565b61219e565b34801561088257600080fd5b506103436108913660046132d9565b612242565b3480156108a257600080fd5b5061039c6108b13660046132bd565b612358565b3480156108c257600080fd5b5061036e669fdf42f6e4800081565b3480156108dd57600080fd5b506011546103e0906001600160a01b031681565b60007fffffffff0000000000000000000000000000000000000000000000000000000082167f80ac58cd00000000000000000000000000000000000000000000000000000000148061098457507fffffffff0000000000000000000000000000000000000000000000000000000082167f5b5e139f00000000000000000000000000000000000000000000000000000000145b806109d057507f01ffc9a7000000000000000000000000000000000000000000000000000000007fffffffff000000000000000000000000000000000000000000000000000000008316145b92915050565b6000546001600160a01b03163314610a355760405162461bcd60e51b815260206004820181905260248201527f4f776e61626c653a2063616c6c6572206973206e6f7420746865206f776e657260448201526064015b60405180910390fd5b60185481600a54610a46919061371c565b1115610a945760405162461bcd60e51b815260206004820152601160248201527f4e6f7420656e6f75676820737570706c790000000000000000000000000000006044820152606401610a2c565b6017548110610ae55760405162461bcd60e51b815260206004820152601960248201527f476976696e67206177617920746f6f206d616e79204e465473000000000000006044820152606401610a2c565b60008111610b355760405162461bcd60e51b815260206004820181905260248201527f416d6f756e74206d7573742062652067726561746572207468616e207a65726f6044820152606401610a2c565b610b3f828261243a565b5050565b606060018054610b52906137aa565b80601f0160208091040260200160405190810160405280929190818152602001828054610b7e906137aa565b8015610bcb5780601f10610ba057610100808354040283529160200191610bcb565b820191906000526020600020905b815481529060010190602001808311610bae57829003601f168201915b5050505050905090565b6000818152600360205260408120546001600160a01b0316610c5f5760405162461bcd60e51b815260206004820152602c60248201527f4552433732313a20617070726f76656420717565727920666f72206e6f6e657860448201527f697374656e7420746f6b656e00000000000000000000000000000000000000006064820152608401610a2c565b506000908152600560205260409020546001600160a01b031690565b6000546001600160a01b03163314610cd55760405162461bcd60e51b815260206004820181905260248201527f4f776e61626c653a2063616c6c6572206973206e6f7420746865206f776e65726044820152606401610a2c565b6015805473ffffffffffffffffffffffffffffffffffffffff19166001600160a01b0392909216919091179055565b6000610d0f8261115a565b9050806001600160a01b0316836001600160a01b03161415610d995760405162461bcd60e51b815260206004820152602160248201527f4552433732313a20617070726f76616c20746f2063757272656e74206f776e6560448201527f72000000000000000000000000000000000000000000000000000000000000006064820152608401610a2c565b336001600160a01b0382161480610db55750610db58133612242565b610e275760405162461bcd60e51b815260206004820152603860248201527f4552433732313a20617070726f76652063616c6c6572206973206e6f74206f7760448201527f6e6572206e6f7220617070726f76656420666f7220616c6c00000000000000006064820152608401610a2c565b610e318383612476565b505050565b610e4033826124f1565b610eb25760405162461bcd60e51b815260206004820152603160248201527f4552433732313a207472616e736665722063616c6c6572206973206e6f74206f60448201527f776e6572206e6f7220617070726f7665640000000000000000000000000000006064820152608401610a2c565b610e318383836125d1565b60008281526003602052604081205481906001600160a01b0316610f235760405162461bcd60e51b815260206004820152601160248201527f4e6f6e6578697374656e7420746f6b656e0000000000000000000000000000006044820152606401610a2c565b30610f39601654856127ab90919063ffffffff16565b915091509250929050565b6000546001600160a01b03163314610f9e5760405162461bcd60e51b815260206004820181905260248201527f4f776e61626c653a2063616c6c6572206973206e6f7420746865206f776e65726044820152606401610a2c565b8060ff166002811115610fc157634e487b7160e01b600052602160045260246000fd5b6008805460ff19166001836002811115610feb57634e487b7160e01b600052602160045260246000fd5b021790555050565b6000546001600160a01b0316331461104d5760405162461bcd60e51b815260206004820181905260248201527f4f776e61626c653a2063616c6c6572206973206e6f7420746865206f776e65726044820152606401610a2c565b4761109a5760405162461bcd60e51b815260206004820152600f60248201527f42616c616e6365206973207a65726f00000000000000000000000000000000006044820152606401610a2c565b6110ba6110a84760146127ab565b600c546001600160a01b0316906127b7565b600d546110d0906001600160a01b0316476127b7565b565b610e3183838360405180602001604052806000815250611d7f565b6000546001600160a01b031633146111475760405162461bcd60e51b815260206004820181905260248201527f4f776e61626c653a2063616c6c6572206973206e6f7420746865206f776e65726044820152606401610a2c565b8051610b3f9060099060208401906131cc565b6000818152600360205260408120546001600160a01b0316806109d05760405162461bcd60e51b815260206004820152602960248201527f4552433732313a206f776e657220717565727920666f72206e6f6e657869737460448201527f656e7420746f6b656e00000000000000000000000000000000000000000000006064820152608401610a2c565b60006001600160a01b0382166112635760405162461bcd60e51b815260206004820152602a60248201527f4552433732313a2062616c616e636520717565727920666f7220746865207a6560448201527f726f2061646472657373000000000000000000000000000000000000000000006064820152608401610a2c565b506001600160a01b031660009081526004602052604090205490565b6000546001600160a01b031633146112d95760405162461bcd60e51b815260206004820181905260248201527f4f776e61626c653a2063616c6c6572206973206e6f7420746865206f776e65726044820152606401610a2c565b6110d060006128d0565b6000546001600160a01b0316331461133d5760405162461bcd60e51b815260206004820181905260248201527f4f776e61626c653a2063616c6c6572206973206e6f7420746865206f776e65726044820152606401610a2c565b600e55565b6000546001600160a01b0316331461139c5760405162461bcd60e51b815260206004820181905260248201527f4f776e61626c653a2063616c6c6572206973206e6f7420746865206f776e65726044820152606401610a2c565b600f80546001600160a01b0390921673ffffffffffffffffffffffffffffffffffffffff19928316811790915560128054909216179055565b606060028054610b52906137aa565b6001600160a01b03821633141561143d5760405162461bcd60e51b815260206004820152601960248201527f4552433732313a20617070726f766520746f2063616c6c6572000000000000006044820152606401610a2c565b3360008181526006602090815260408083206001600160a01b03871680855290835292819020805460ff191686151590811790915590519081529192917f17307eab39ab6107e8899845ad3d59bd9653f200f220920489ca2b5937696c31910160405180910390a35050565b83838383600060085460ff1660028111156114d457634e487b7160e01b600052602160045260246000fd5b14156115225760405162461bcd60e51b815260206004820152601160248201527f4d696e74696e6720697320636c6f7365640000000000000000000000000000006044820152606401610a2c565b601954600a54106115755760405162461bcd60e51b815260206004820152601660248201527f436f6c6c656374696f6e20697320736f6c64206f7574000000000000000000006044820152606401610a2c565b600061158985670138a388a43c0000613748565b905061159c8466d529ae9e860000613748565b6115a6908261371c565b90506115b98366d529ae9e860000613748565b6115c3908261371c565b90506115d682669fdf42f6e48000613748565b6115e0908261371c565b90508034146116315760405162461bcd60e51b815260206004820152601960248201527f45746865722073656e74206973206e6f7420636f7272656374000000000000006044820152606401610a2c565b3332146116805760405162461bcd60e51b815260206004820152601d60248201527f436f6e747261637473206e6f7420616c6c6f77656420746f206d696e740000006044820152606401610a2c565b600260075414156116d35760405162461bcd60e51b815260206004820152601f60248201527f5265656e7472616e637947756172643a207265656e7472616e742063616c6c006044820152606401610a2c565b6002600755600160085460ff1660028111156116ff57634e487b7160e01b600052602160045260246000fd5b141561185357886001146117555760405162461bcd60e51b815260206004820152601f60248201527f4d757374206d696e742065786163746c7920312067656e65736973204e4654006044820152606401610a2c565b600288106117a55760405162461bcd60e51b815260206004820152601760248201527f4d696e74696e67206c696d6974732065786365656465640000000000000000006044820152606401610a2c565b600287106117f55760405162461bcd60e51b815260206004820152601760248201527f4d696e74696e67206c696d6974732065786365656465640000000000000000006044820152606401610a2c565b600286106118455760405162461bcd60e51b815260206004820152601760248201527f4d696e74696e67206c696d6974732065786365656465640000000000000000006044820152606401610a2c565b61184e8a61292d565b611a19565b600260085460ff16600281111561187a57634e487b7160e01b600052602160045260246000fd5b1415611a1957600089116118d05760405162461bcd60e51b815260206004820181905260248201527f4d757374206d696e74206174206c6561737420312067656e65736973204e46546044820152606401610a2c565b600389106119205760405162461bcd60e51b815260206004820152601760248201527f4d696e74696e67206c696d6974732065786365656465640000000000000000006044820152606401610a2c565b600388106119705760405162461bcd60e51b815260206004820152601760248201527f4d696e74696e67206c696d6974732065786365656465640000000000000000006044820152606401610a2c565b600387106119c05760405162461bcd60e51b815260206004820152601760248201527f4d696e74696e67206c696d6974732065786365656465640000000000000000006044820152606401610a2c565b60038610611a105760405162461bcd60e51b815260206004820152601760248201527f4d696e74696e67206c696d6974732065786365656465640000000000000000006044820152606401610a2c565b611a1989612b0c565b8715611b3a576012546040516340c10f1960e01b8152336004820152602481018a90526000916001600160a01b0316906340c10f1990604401602060405180830381600087803b158015611a6c57600080fd5b505af1158015611a80573d6000803e3d6000fd5b505050506040513d601f19601f82011682018060405250810190611aa49190613509565b905080611b3857611ac6611abf8a66d529ae9e860000613748565b33906127b7565b336001600160a01b03167f8fcdd250616ab6a8736f51b0370059d65265dfd1c97002f2bfd4f5d15e8f7bc7604051611b2f906020808252600d908201527f4d65726368206661696c75726500000000000000000000000000000000000000604082015260600190565b60405180910390a25b505b8615611c54576013546040516340c10f1960e01b8152336004820152602481018990526000916001600160a01b0316906340c10f1990604401602060405180830381600087803b158015611b8d57600080fd5b505af1158015611ba1573d6000803e3d6000fd5b505050506040513d601f19601f82011682018060405250810190611bc59190613509565b905080611c5257611be0611abf8966d529ae9e860000613748565b336001600160a01b03167f8fcdd250616ab6a8736f51b0370059d65265dfd1c97002f2bfd4f5d15e8f7bc7604051611c49906020808252600c908201527f4d657461206661696c7572650000000000000000000000000000000000000000604082015260600190565b60405180910390a25b505b8515611d6e576014546040516340c10f1960e01b8152336004820152602481018890526000916001600160a01b0316906340c10f1990604401602060405180830381600087803b158015611ca757600080fd5b505af1158015611cbb573d6000803e3d6000fd5b505050506040513d601f19601f82011682018060405250810190611cdf9190613509565b905080611d6c57611cfa611abf88669fdf42f6e48000613748565b336001600160a01b03167f8fcdd250616ab6a8736f51b0370059d65265dfd1c97002f2bfd4f5d15e8f7bc7604051611d63906020808252600f908201527f5574696c697479206661696c7572650000000000000000000000000000000000604082015260600190565b60405180910390a25b505b505060016007555050505050505050565b611d8933836124f1565b611dfb5760405162461bcd60e51b815260206004820152603160248201527f4552433732313a207472616e736665722063616c6c6572206973206e6f74206f60448201527f776e6572206e6f7220617070726f7665640000000000000000000000000000006064820152608401610a2c565b611e0784848484612b8a565b50505050565b6000818152600360205260409020546060906001600160a01b0316611e9a5760405162461bcd60e51b815260206004820152602f60248201527f4552433732314d657461646174613a2055524920717565727920666f72206e6f60448201527f6e6578697374656e7420746f6b656e00000000000000000000000000000000006064820152608401610a2c565b6000611ea4612c13565b90506000815111611ec45760405180602001604052806000815250611eef565b80611ece84612c22565b604051602001611edf929190613645565b6040516020818303038152906040525b9392505050565b6000546001600160a01b03163314611f505760405162461bcd60e51b815260206004820181905260248201527f4f776e61626c653a2063616c6c6572206973206e6f7420746865206f776e65726044820152606401610a2c565b601655565b60098054611f62906137aa565b80601f0160208091040260200160405190810160405280929190818152602001828054611f8e906137aa565b8015611fdb5780601f10611fb057610100808354040283529160200191611fdb565b820191906000526020600020905b815481529060010190602001808311611fbe57829003601f168201915b505050505081565b6000546001600160a01b0316331461203d5760405162461bcd60e51b815260206004820181905260248201527f4f776e61626c653a2063616c6c6572206973206e6f7420746865206f776e65726044820152606401610a2c565b601080546001600160a01b0390921673ffffffffffffffffffffffffffffffffffffffff19928316811790915560138054909216179055565b6000546001600160a01b031633146120d05760405162461bcd60e51b815260206004820181905260248201527f4f776e61626c653a2063616c6c6572206973206e6f7420746865206f776e65726044820152606401610a2c565b601180546001600160a01b0390921673ffffffffffffffffffffffffffffffffffffffff19928316811790915560148054909216179055565b6000546001600160a01b031633146121635760405162461bcd60e51b815260206004820181905260248201527f4f776e61626c653a2063616c6c6572206973206e6f7420746865206f776e65726044820152606401610a2c565b600c80546001600160a01b0393841673ffffffffffffffffffffffffffffffffffffffff1991821617909155600d8054929093169116179055565b6000546001600160a01b031633146121f85760405162461bcd60e51b815260206004820181905260248201527f4f776e61626c653a2063616c6c6572206973206e6f7420746865206f776e65726044820152606401610a2c565b6015805491151574010000000000000000000000000000000000000000027fffffffffffffffffffffff00ffffffffffffffffffffffffffffffffffffffff909216919091179055565b6015546000906001600160a01b0381169074010000000000000000000000000000000000000000900460ff16801561231757506040517fc45527910000000000000000000000000000000000000000000000000000000081526001600160a01b038581166004830152808516919083169063c45527919060240160206040518083038186803b1580156122d457600080fd5b505afa1580156122e8573d6000803e3d6000fd5b505050506040513d601f19601f8201168201806040525081019061230c9190613575565b6001600160a01b0316145b156123265760019150506109d0565b6001600160a01b0380851660009081526006602090815260408083209387168352929052205460ff165b949350505050565b6000546001600160a01b031633146123b25760405162461bcd60e51b815260206004820181905260248201527f4f776e61626c653a2063616c6c6572206973206e6f7420746865206f776e65726044820152606401610a2c565b6001600160a01b03811661242e5760405162461bcd60e51b815260206004820152602660248201527f4f776e61626c653a206e6577206f776e657220697320746865207a65726f206160448201527f64647265737300000000000000000000000000000000000000000000000000006064820152608401610a2c565b612437816128d0565b50565b60005b81811015610e3157600a805461246491859190600061245b836137e5565b91905055612d70565b8061246e816137e5565b91505061243d565b6000818152600560205260409020805473ffffffffffffffffffffffffffffffffffffffff19166001600160a01b03841690811790915581906124b88261115a565b6001600160a01b03167f8c5be1e5ebec7d5bd14f71427d1e84f3dd0314c0f7b2291e5b200ac8c7c3b92560405160405180910390a45050565b6000818152600360205260408120546001600160a01b031661257b5760405162461bcd60e51b815260206004820152602c60248201527f4552433732313a206f70657261746f7220717565727920666f72206e6f6e657860448201527f697374656e7420746f6b656e00000000000000000000000000000000000000006064820152608401610a2c565b60006125868361115a565b9050806001600160a01b0316846001600160a01b031614806125c15750836001600160a01b03166125b684610bd5565b6001600160a01b0316145b8061235057506123508185612242565b826001600160a01b03166125e48261115a565b6001600160a01b0316146126605760405162461bcd60e51b815260206004820152602960248201527f4552433732313a207472616e73666572206f6620746f6b656e2074686174206960448201527f73206e6f74206f776e00000000000000000000000000000000000000000000006064820152608401610a2c565b6001600160a01b0382166126db5760405162461bcd60e51b8152602060048201526024808201527f4552433732313a207472616e7366657220746f20746865207a65726f2061646460448201527f72657373000000000000000000000000000000000000000000000000000000006064820152608401610a2c565b6126e6600082612476565b6001600160a01b038316600090815260046020526040812080546001929061270f908490613767565b90915550506001600160a01b038216600090815260046020526040812080546001929061273d90849061371c565b9091555050600081815260036020526040808220805473ffffffffffffffffffffffffffffffffffffffff19166001600160a01b0386811691821790925591518493918716917fddf252ad1be2c89b69c2b068fc378daa952ba7f163c4a11628f55a4df523b3ef91a4505050565b6000611eef8284613734565b804710156128075760405162461bcd60e51b815260206004820152601d60248201527f416464726573733a20696e73756666696369656e742062616c616e63650000006044820152606401610a2c565b6000826001600160a01b03168260405160006040518083038185875af1925050503d8060008114612854576040519150601f19603f3d011682016040523d82523d6000602084013e612859565b606091505b5050905080610e315760405162461bcd60e51b815260206004820152603a60248201527f416464726573733a20756e61626c6520746f2073656e642076616c75652c207260448201527f6563697069656e74206d617920686176652072657665727465640000000000006064820152608401610a2c565b600080546001600160a01b0383811673ffffffffffffffffffffffffffffffffffffffff19831681178455604051919092169283917f8be0079c531659141344cd1fd0a4f28419497f9722a3daafe3b4186f6b6457e09190a35050565b600160085460ff16600281111561295457634e487b7160e01b600052602160045260246000fd5b146129a15760405162461bcd60e51b815260206004820152601160248201527f57726f6e67206d696e74207374617475730000000000000000000000000000006044820152606401610a2c565b600e546040517fffffffffffffffffffffffffffffffffffffffff0000000000000000000000003360601b1660208201526129f691839160340160405160208183030381529060405280519060200120612d8a565b15612a9c57336000908152600b6020526040902054600190612a18908261371c565b1115612a8c5760405162461bcd60e51b815260206004820152603260248201527f596f752063616e206f6e6c79206d696e7420312067656e65736973204e46542060448201527f647572696e67207468652070726573616c6500000000000000000000000000006064820152608401610a2c565b612a9733600161243a565b612ae4565b60405162461bcd60e51b815260206004820152601760248201527f4e6f74206f6e207468652070726573616c65206c6973740000000000000000006044820152606401610a2c565b336000908152600b60205260408120805460019290612b0490849061371c565b909155505050565b600260085460ff166002811115612b3357634e487b7160e01b600052602160045260246000fd5b14612b805760405162461bcd60e51b815260206004820152601160248201527f57726f6e67206d696e74207374617475730000000000000000000000000000006044820152606401610a2c565b612437338261243a565b612b958484846125d1565b612ba184848484612e47565b611e075760405162461bcd60e51b815260206004820152603260248201527f4552433732313a207472616e7366657220746f206e6f6e20455243373231526560448201527f63656976657220696d706c656d656e74657200000000000000000000000000006064820152608401610a2c565b606060098054610b52906137aa565b606081612c6257505060408051808201909152600181527f3000000000000000000000000000000000000000000000000000000000000000602082015290565b8160005b8115612c8c5780612c76816137e5565b9150612c859050600a83613734565b9150612c66565b60008167ffffffffffffffff811115612cb557634e487b7160e01b600052604160045260246000fd5b6040519080825280601f01601f191660200182016040528015612cdf576020820181803683370190505b5090505b841561235057612cf4600183613767565b9150612d01600a86613800565b612d0c90603061371c565b60f81b818381518110612d2f57634e487b7160e01b600052603260045260246000fd5b60200101907effffffffffffffffffffffffffffffffffffffffffffffffffffffffffffff1916908160001a905350612d69600a86613734565b9450612ce3565b610b3f828260405180602001604052806000815250612ff4565b600081815b8551811015612e3c576000868281518110612dba57634e487b7160e01b600052603260045260246000fd5b60200260200101519050808311612dfc576040805160208101859052908101829052606001604051602081830303815290604052805190602001209250612e29565b60408051602081018390529081018490526060016040516020818303038152906040528051906020012092505b5080612e34816137e5565b915050612d8f565b509092149392505050565b60006001600160a01b0384163b15612fe9576040517f150b7a020000000000000000000000000000000000000000000000000000000081526001600160a01b0385169063150b7a0290612ea4903390899088908890600401613674565b602060405180830381600087803b158015612ebe57600080fd5b505af1925050508015612eee575060408051601f3d908101601f19168201909252612eeb91810190613559565b60015b612f9e573d808015612f1c576040519150601f19603f3d011682016040523d82523d6000602084013e612f21565b606091505b508051612f965760405162461bcd60e51b815260206004820152603260248201527f4552433732313a207472616e7366657220746f206e6f6e20455243373231526560448201527f63656976657220696d706c656d656e74657200000000000000000000000000006064820152608401610a2c565b805181602001fd5b7fffffffff00000000000000000000000000000000000000000000000000000000167f150b7a0200000000000000000000000000000000000000000000000000000000149050612350565b506001949350505050565b612ffe838361307d565b61300b6000848484612e47565b610e315760405162461bcd60e51b815260206004820152603260248201527f4552433732313a207472616e7366657220746f206e6f6e20455243373231526560448201527f63656976657220696d706c656d656e74657200000000000000000000000000006064820152608401610a2c565b6001600160a01b0382166130d35760405162461bcd60e51b815260206004820181905260248201527f4552433732313a206d696e7420746f20746865207a65726f20616464726573736044820152606401610a2c565b6000818152600360205260409020546001600160a01b0316156131385760405162461bcd60e51b815260206004820152601c60248201527f4552433732313a20746f6b656e20616c7265616479206d696e746564000000006044820152606401610a2c565b6001600160a01b038216600090815260046020526040812080546001929061316190849061371c565b9091555050600081815260036020526040808220805473ffffffffffffffffffffffffffffffffffffffff19166001600160a01b03861690811790915590518392907fddf252ad1be2c89b69c2b068fc378daa952ba7f163c4a11628f55a4df523b3ef908290a45050565b8280546131d8906137aa565b90600052602060002090601f0160209004810192826131fa5760008555613240565b82601f1061321357805160ff1916838001178555613240565b82800160010185558215613240579182015b82811115613240578251825591602001919060010190613225565b5061324c929150613250565b5090565b5b8082111561324c5760008155600101613251565b600067ffffffffffffffff83111561327f5761327f613840565b6132926020601f19601f860116016136eb565b90508281528383830111156132a657600080fd5b828260208301376000602084830101529392505050565b6000602082840312156132ce578081fd5b8135611eef81613856565b600080604083850312156132eb578081fd5b82356132f681613856565b9150602083013561330681613856565b809150509250929050565b600080600060608486031215613325578081fd5b833561333081613856565b9250602084013561334081613856565b929592945050506040919091013590565b60008060008060808587031215613366578081fd5b843561337181613856565b9350602085013561338181613856565b925060408501359150606085013567ffffffffffffffff8111156133a3578182fd5b8501601f810187136133b3578182fd5b6133c287823560208401613265565b91505092959194509250565b600080604083850312156133e0578182fd5b82356133eb81613856565b915060208301356133068161386b565b6000806040838503121561340d578182fd5b823561341881613856565b946020939093013593505050565b600080600080600060a0868803121561343d578081fd5b853567ffffffffffffffff80821115613454578283fd5b818801915088601f830112613467578283fd5b813560208282111561347b5761347b613840565b8160051b925061348c8184016136eb565b8281528181019085830185870184018e10156134a6578788fd5b8796505b848710156134c85780358352600196909601959183019183016134aa565b509c918b01359b505060408a0135996060810135995060800135975095505050505050565b6000602082840312156134fe578081fd5b8135611eef8161386b565b60006020828403121561351a578081fd5b8151611eef8161386b565b600060208284031215613536578081fd5b5035919050565b60006020828403121561354e578081fd5b8135611eef81613879565b60006020828403121561356a578081fd5b8151611eef81613879565b600060208284031215613586578081fd5b8151611eef81613856565b6000602082840312156135a2578081fd5b813567ffffffffffffffff8111156135b8578182fd5b8201601f810184136135c8578182fd5b61235084823560208401613265565b600080604083850312156135e9578182fd5b50508035926020909101359150565b600060208284031215613609578081fd5b813560ff81168114611eef578182fd5b6000815180845261363181602086016020860161377e565b601f01601f19169290920160200192915050565b6000835161365781846020880161377e565b83519083019061366b81836020880161377e565b01949350505050565b60006001600160a01b038087168352808616602084015250836040830152608060608301526136a66080830184613619565b9695505050505050565b60208101600383106136d257634e487b7160e01b600052602160045260246000fd5b91905290565b602081526000611eef6020830184613619565b604051601f8201601f1916810167ffffffffffffffff8111828210171561371457613714613840565b604052919050565b6000821982111561372f5761372f613814565b500190565b6000826137435761374361382a565b500490565b600081600019048311821515161561376257613762613814565b500290565b60008282101561377957613779613814565b500390565b60005b83811015613799578181015183820152602001613781565b83811115611e075750506000910152565b600181811c908216806137be57607f821691505b602082108114156137df57634e487b7160e01b600052602260045260246000fd5b50919050565b60006000198214156137f9576137f9613814565b5060010190565b60008261380f5761380f61382a565b500690565b634e487b7160e01b600052601160045260246000fd5b634e487b7160e01b600052601260045260246000fd5b634e487b7160e01b600052604160045260246000fd5b6001600160a01b038116811461243757600080fd5b801515811461243757600080fd5b7fffffffff000000000000000000000000000000000000000000000000000000008116811461243757600080fdfea26469706673582212208a50b36e81cd2cfc22d0eb0e77632025d756c9be700a76a316b14d6958fb993264736f6c63430008040033",
  "linkReferences": {},
  "deployedLinkReferences": {}
}