{
  "_format": "hh-sol-artifact-1",
  "contractName": "MetaPassNFT",
  "sourceName": "contracts/MetaPassNFT.sol",
  "abi": [
    {
      "inputs": [
        {
          "internalType": "address",
          "name": "_genesisAddress",
          "type": "address"
        },
        {
          "internalType": "address",
          "name": "_openSeaProxyRegistryAddress",
          "type": "address"
        },
        {
          "internalType": "uint256",
          "name": "_supply",
          "type": "uint256"
        },
        {
          "internalType": "uint256",
          "name": "_giveawaySupply",
          "type": "uint256"
        }
      ],
      "stateMutability": "nonpayable",
      "type": "constructor"
    },
    {
      "anonymous": false,
      "inputs": [
        {
          "indexed": true,
          "internalType": "address",
          "name": "owner",
          "type": "address"
        },
        {
          "indexed": true,
          "internalType": "address",
          "name": "approved",
          "type": "address"
        },
        {
          "indexed": true,
          "internalType": "uint256",
          "name": "tokenId",
          "type": "uint256"
        }
      ],
      "name": "Approval",
      "type": "event"
    },
    {
      "anonymous": false,
      "inputs": [
        {
          "indexed": true,
          "internalType": "address",
          "name": "owner",
          "type": "address"
        },
        {
          "indexed": true,
          "internalType": "address",
          "name": "operator",
          "type": "address"
        },
        {
          "indexed": false,
          "internalType": "bool",
          "name": "approved",
          "type": "bool"
        }
      ],
      "name": "ApprovalForAll",
      "type": "event"
    },
    {
      "anonymous": false,
      "inputs": [
        {
          "indexed": true,
          "internalType": "address",
          "name": "previousOwner",
          "type": "address"
        },
        {
          "indexed": true,
          "internalType": "address",
          "name": "newOwner",
          "type": "address"
        }
      ],
      "name": "OwnershipTransferred",
      "type": "event"
    },
    {
      "anonymous": false,
      "inputs": [
        {
          "indexed": true,
          "internalType": "address",
          "name": "from",
          "type": "address"
        },
        {
          "indexed": true,
          "internalType": "address",
          "name": "to",
          "type": "address"
        },
        {
          "indexed": true,
          "internalType": "uint256",
          "name": "tokenId",
          "type": "uint256"
        }
      ],
      "name": "Transfer",
      "type": "event"
    },
    {
      "inputs": [],
      "name": "PRICE",
      "outputs": [
        {
          "internalType": "uint256",
          "name": "",
          "type": "uint256"
        }
      ],
      "stateMutability": "view",
      "type": "function"
    },
    {
      "inputs": [
        {
          "internalType": "address",
          "name": "to",
          "type": "address"
        },
        {
          "internalType": "uint256",
          "name": "tokenId",
          "type": "uint256"
        }
      ],
      "name": "approve",
      "outputs": [],
      "stateMutability": "nonpayable",
      "type": "function"
    },
    {
      "inputs": [
        {
          "internalType": "address",
          "name": "owner",
          "type": "address"
        }
      ],
      "name": "balanceOf",
      "outputs": [
        {
          "internalType": "uint256",
          "name": "",
          "type": "uint256"
        }
      ],
      "stateMutability": "view",
      "type": "function"
    },
    {
      "inputs": [],
      "name": "baseTokenURI",
      "outputs": [
        {
          "internalType": "string",
          "name": "",
          "type": "string"
        }
      ],
      "stateMutability": "view",
      "type": "function"
    },
    {
      "inputs": [],
      "name": "genesisAddress",
      "outputs": [
        {
          "internalType": "address",
          "name": "",
          "type": "address"
        }
      ],
      "stateMutability": "view",
      "type": "function"
    },
    {
      "inputs": [
        {
          "internalType": "uint256",
          "name": "tokenId",
          "type": "uint256"
        }
      ],
      "name": "getApproved",
      "outputs": [
        {
          "internalType": "address",
          "name": "",
          "type": "address"
        }
      ],
      "stateMutability": "view",
      "type": "function"
    },
    {
      "inputs": [
        {
          "internalType": "address",
          "name": "_to",
          "type": "address"
        },
        {
          "internalType": "uint256",
          "name": "_amount",
          "type": "uint256"
        }
      ],
      "name": "giveaway",
      "outputs": [],
      "stateMutability": "nonpayable",
      "type": "function"
    },
    {
      "inputs": [],
      "name": "giveawaySupply",
      "outputs": [
        {
          "internalType": "uint256",
          "name": "",
          "type": "uint256"
        }
      ],
      "stateMutability": "view",
      "type": "function"
    },
    {
      "inputs": [
        {
          "internalType": "address",
          "name": "owner",
          "type": "address"
        },
        {
          "internalType": "address",
          "name": "operator",
          "type": "address"
        }
      ],
      "name": "isApprovedForAll",
      "outputs": [
        {
          "internalType": "bool",
          "name": "",
          "type": "bool"
        }
      ],
      "stateMutability": "view",
      "type": "function"
    },
    {
      "inputs": [
        {
          "internalType": "address",
          "name": "_to",
          "type": "address"
        },
        {
          "internalType": "uint256",
          "name": "_amount",
          "type": "uint256"
        }
      ],
      "name": "mint",
      "outputs": [
        {
          "internalType": "bool",
          "name": "",
          "type": "bool"
        }
      ],
      "stateMutability": "nonpayable",
      "type": "function"
    },
    {
      "inputs": [
        {
          "internalType": "uint256",
          "name": "_amount",
          "type": "uint256"
        }
      ],
      "name": "mintGenesisSoldOut",
      "outputs": [],
      "stateMutability": "payable",
      "type": "function"
    },
    {
      "inputs": [],
      "name": "mintableSupply",
      "outputs": [
        {
          "internalType": "uint256",
          "name": "",
          "type": "uint256"
        }
      ],
      "stateMutability": "view",
      "type": "function"
    },
    {
      "inputs": [],
      "name": "name",
      "outputs": [
        {
          "internalType": "string",
          "name": "",
          "type": "string"
        }
      ],
      "stateMutability": "view",
      "type": "function"
    },
    {
      "inputs": [],
      "name": "owner",
      "outputs": [
        {
          "internalType": "address",
          "name": "",
          "type": "address"
        }
      ],
      "stateMutability": "view",
      "type": "function"
    },
    {
      "inputs": [
        {
          "internalType": "uint256",
          "name": "tokenId",
          "type": "uint256"
        }
      ],
      "name": "ownerOf",
      "outputs": [
        {
          "internalType": "address",
          "name": "",
          "type": "address"
        }
      ],
      "stateMutability": "view",
      "type": "function"
    },
    {
      "inputs": [],
      "name": "renounceOwnership",
      "outputs": [],
      "stateMutability": "nonpayable",
      "type": "function"
    },
    {
      "inputs": [
        {
          "internalType": "uint256",
          "name": "tokenId",
          "type": "uint256"
        },
        {
          "internalType": "uint256",
          "name": "salePrice",
          "type": "uint256"
        }
      ],
      "name": "royaltyInfo",
      "outputs": [
        {
          "internalType": "address",
          "name": "receiver",
          "type": "address"
        },
        {
          "internalType": "uint256",
          "name": "royaltyAmount",
          "type": "uint256"
        }
      ],
      "stateMutability": "view",
      "type": "function"
    },
    {
      "inputs": [
        {
          "internalType": "address",
          "name": "from",
          "type": "address"
        },
        {
          "internalType": "address",
          "name": "to",
          "type": "address"
        },
        {
          "internalType": "uint256",
          "name": "tokenId",
          "type": "uint256"
        }
      ],
      "name": "safeTransferFrom",
      "outputs": [],
      "stateMutability": "nonpayable",
      "type": "function"
    },
    {
      "inputs": [
        {
          "internalType": "address",
          "name": "from",
          "type": "address"
        },
        {
          "internalType": "address",
          "name": "to",
          "type": "address"
        },
        {
          "internalType": "uint256",
          "name": "tokenId",
          "type": "uint256"
        },
        {
          "internalType": "bytes",
          "name": "_data",
          "type": "bytes"
        }
      ],
      "name": "safeTransferFrom",
      "outputs": [],
      "stateMutability": "nonpayable",
      "type": "function"
    },
    {
      "inputs": [
        {
          "internalType": "address",
          "name": "operator",
          "type": "address"
        },
        {
          "internalType": "bool",
          "name": "approved",
          "type": "bool"
        }
      ],
      "name": "setApprovalForAll",
      "outputs": [],
      "stateMutability": "nonpayable",
      "type": "function"
    },
    {
      "inputs": [
        {
          "internalType": "string",
          "name": "_uri",
          "type": "string"
        }
      ],
      "name": "setBaseURI",
      "outputs": [],
      "stateMutability": "nonpayable",
      "type": "function"
    },
    {
      "inputs": [
        {
          "internalType": "address",
          "name": "_genesisAddress",
          "type": "address"
        }
      ],
      "name": "setGenesisAddress",
      "outputs": [],
      "stateMutability": "nonpayable",
      "type": "function"
    },
    {
      "inputs": [
        {
          "internalType": "bool",
          "name": "_isOpenSeaProxyActive",
          "type": "bool"
        }
      ],
      "name": "setIsOpenSeaProxyActive",
      "outputs": [],
      "stateMutability": "nonpayable",
      "type": "function"
    },
    {
      "inputs": [
        {
          "internalType": "address",
          "name": "_openSeaProxyRegistryAddress",
          "type": "address"
        }
      ],
      "name": "setOpenSeaProxyRegistryAddress",
      "outputs": [],
      "stateMutability": "nonpayable",
      "type": "function"
    },
    {
      "inputs": [
        {
          "internalType": "uint256",
          "name": "_divisor",
          "type": "uint256"
        }
      ],
      "name": "setRoyaltyDivisor",
      "outputs": [],
      "stateMutability": "nonpayable",
      "type": "function"
    },
    {
      "inputs": [
        {
          "internalType": "address",
          "name": "_dest1",
          "type": "address"
        },
        {
          "internalType": "address",
          "name": "_dest2",
          "type": "address"
        }
      ],
      "name": "setWithdrawDests",
      "outputs": [],
      "stateMutability": "nonpayable",
      "type": "function"
    },
    {
      "inputs": [],
      "name": "supply",
      "outputs": [
        {
          "internalType": "uint256",
          "name": "",
          "type": "uint256"
        }
      ],
      "stateMutability": "view",
      "type": "function"
    },
    {
      "inputs": [
        {
          "internalType": "bytes4",
          "name": "interfaceId",
          "type": "bytes4"
        }
      ],
      "name": "supportsInterface",
      "outputs": [
        {
          "internalType": "bool",
          "name": "",
          "type": "bool"
        }
      ],
      "stateMutability": "view",
      "type": "function"
    },
    {
      "inputs": [],
      "name": "symbol",
      "outputs": [
        {
          "internalType": "string",
          "name": "",
          "type": "string"
        }
      ],
      "stateMutability": "view",
      "type": "function"
    },
    {
      "inputs": [],
      "name": "tokenCount",
      "outputs": [
        {
          "internalType": "uint256",
          "name": "",
          "type": "uint256"
        }
      ],
      "stateMutability": "view",
      "type": "function"
    },
    {
      "inputs": [
        {
          "internalType": "uint256",
          "name": "tokenId",
          "type": "uint256"
        }
      ],
      "name": "tokenURI",
      "outputs": [
        {
          "internalType": "string",
          "name": "",
          "type": "string"
        }
      ],
      "stateMutability": "view",
      "type": "function"
    },
    {
      "inputs": [
        {
          "internalType": "address",
          "name": "from",
          "type": "address"
        },
        {
          "internalType": "address",
          "name": "to",
          "type": "address"
        },
        {
          "internalType": "uint256",
          "name": "tokenId",
          "type": "uint256"
        }
      ],
      "name": "transferFrom",
      "outputs": [],
      "stateMutability": "nonpayable",
      "type": "function"
    },
    {
      "inputs": [
        {
          "internalType": "address",
          "name": "newOwner",
          "type": "address"
        }
      ],
      "name": "transferOwnership",
      "outputs": [],
      "stateMutability": "nonpayable",
      "type": "function"
    },
    {
      "inputs": [],
      "name": "withdraw",
      "outputs": [],
      "stateMutability": "nonpayable",
      "type": "function"
    },
    {
      "inputs": [],
      "name": "withdrawDest1",
      "outputs": [
        {
          "internalType": "address",
          "name": "",
          "type": "address"
        }
      ],
      "stateMutability": "view",
      "type": "function"
    },
    {
      "inputs": [],
      "name": "withdrawDest2",
      "outputs": [
        {
          "internalType": "address",
          "name": "",
          "type": "address"
        }
      ],
      "stateMutability": "view",
      "type": "function"
    }
  ],
  "bytecode": "0x60806040526000600b55600c805460ff60a01b1916600160a01b1790556014600d5560fa600e81905561257b600f8190556200003c919062000310565b601055601180546001600160a01b031990811673b0b035d2e95d2c7820d58a56575b0c24ba8a964117909155601280549091167327a05d42046eace2ed21282643b1530867ffb2bb1790553480156200009457600080fd5b5060405162002f0438038062002f04833981016040819052620000b791620002c9565b604080518082018252601581527f50737963686564656c696373204e4654204d65746100000000000000000000006020808301918252835180850190945260048452634d45544160e01b908401528151919291620001189160009162000206565b5080516200012e90600190602084019062000206565b5050506200014b62000145620001b060201b60201c565b620001b4565b6001600755600980546001600160a01b03199081166001600160a01b03878116918217909355600a805483169091179055600c8054909116918516919091179055600f829055600e819055620001a2818362000310565b601055506200037192505050565b3390565b600680546001600160a01b038381166001600160a01b0319831681179093556040519116919082907f8be0079c531659141344cd1fd0a4f28419497f9722a3daafe3b4186f6b6457e090600090a35050565b828054620002149062000334565b90600052602060002090601f01602090048101928262000238576000855562000283565b82601f106200025357805160ff191683800117855562000283565b8280016001018555821562000283579182015b828111156200028357825182559160200191906001019062000266565b506200029192915062000295565b5090565b5b8082111562000291576000815560010162000296565b80516001600160a01b0381168114620002c457600080fd5b919050565b60008060008060808587031215620002df578384fd5b620002ea85620002ac565b9350620002fa60208601620002ac565b6040860151606090960151949790965092505050565b6000828210156200032f57634e487b7160e01b81526011600452602481fd5b500390565b600181811c908216806200034957607f821691505b602082108114156200036b57634e487b7160e01b600052602260045260246000fd5b50919050565b612b8380620003816000396000f3fe60806040526004361061024f5760003560e01c8063715018a611610138578063c87b56dd116100b0578063dfde74051161007f578063e43082f711610064578063e43082f71461066a578063e985e9c51461068a578063f2fde38b146106aa57600080fd5b8063dfde740514610634578063e288e7331461065457600080fd5b8063c87b56dd146105c9578063cbc21b08146105e9578063cc5c095c14610609578063d547cfb71461061f57600080fd5b80639f181b5e11610107578063ab82782c116100ec578063ab82782c14610569578063b121439214610589578063b88d4fde146105a957600080fd5b80639f181b5e14610533578063a22cb4651461054957600080fd5b8063715018a6146104d05780638d859f3e146104e55780638da5cb5b1461050057806395d89b411461051e57600080fd5b80633ccfd60b116101cb5780636065fb331161019a5780636352211e1161017f5780636352211e1461047d57806370a082311461049d57806370fc13cf146104bd57600080fd5b80636065fb331461043d57806361869a931461045d57600080fd5b80633ccfd60b146103c857806340c10f19146103dd57806342842e0e146103fd57806355f804b31461041d57600080fd5b8063081812fc11610222578063095ea7b311610207578063095ea7b31461034957806323b872dd146103695780632a55205a1461038957600080fd5b8063081812fc146102f157806308abf0261461032957600080fd5b806301ffc9a714610254578063047fc9aa14610289578063050225ea146102ad57806306fdde03146102cf575b600080fd5b34801561026057600080fd5b5061027461026f366004612845565b6106ca565b60405190151581526020015b60405180910390f35b34801561029557600080fd5b5061029f600f5481565b604051908152602001610280565b3480156102b957600080fd5b506102cd6102c83660046127e2565b6107af565b005b3480156102db57600080fd5b506102e461091c565b60405161028091906129af565b3480156102fd57600080fd5b5061031161030c3660046128df565b6109ae565b6040516001600160a01b039091168152602001610280565b34801561033557600080fd5b506102cd6103443660046126a4565b610a54565b34801561035557600080fd5b506102cd6103643660046127e2565b610add565b34801561037557600080fd5b506102cd6103843660046126f8565b610c0f565b34801561039557600080fd5b506103a96103a43660046128f7565b610c96565b604080516001600160a01b039093168352602083019190915201610280565b3480156103d457600080fd5b506102cd610d1d565b3480156103e957600080fd5b506102746103f83660046127e2565b610dfc565b34801561040957600080fd5b506102cd6104183660046126f8565b610f01565b34801561042957600080fd5b506102cd610438366004612899565b610f1c565b34801561044957600080fd5b50600954610311906001600160a01b031681565b34801561046957600080fd5b50601154610311906001600160a01b031681565b34801561048957600080fd5b506103116104983660046128df565b610f89565b3480156104a957600080fd5b5061029f6104b83660046126a4565b611014565b6102cd6104cb3660046128df565b6110ae565b3480156104dc57600080fd5b506102cd6113a7565b3480156104f157600080fd5b5061029f66d529ae9e86000081565b34801561050c57600080fd5b506006546001600160a01b0316610311565b34801561052a57600080fd5b506102e461140b565b34801561053f57600080fd5b5061029f600b5481565b34801561055557600080fd5b506102cd6105643660046127b5565b61141a565b34801561057557600080fd5b506102cd6105843660046126a4565b6114fd565b34801561059557600080fd5b50601254610311906001600160a01b031681565b3480156105b557600080fd5b506102cd6105c4366004612738565b611586565b3480156105d557600080fd5b506102e46105e43660046128df565b611614565b3480156105f557600080fd5b506102cd6106043660046128df565b6116fd565b34801561061557600080fd5b5061029f60105481565b34801561062b57600080fd5b506102e461175c565b34801561064057600080fd5b506102cd61064f3660046126c0565b6117ea565b34801561066057600080fd5b5061029f600e5481565b34801561067657600080fd5b506102cd61068536600461280d565b61187f565b34801561069657600080fd5b506102746106a53660046126c0565b611923565b3480156106b657600080fd5b506102cd6106c53660046126a4565b611a39565b60007fffffffff0000000000000000000000000000000000000000000000000000000082167f80ac58cd00000000000000000000000000000000000000000000000000000000148061075d57507fffffffff0000000000000000000000000000000000000000000000000000000082167f5b5e139f00000000000000000000000000000000000000000000000000000000145b806107a957507f01ffc9a7000000000000000000000000000000000000000000000000000000007fffffffff000000000000000000000000000000000000000000000000000000008316145b92915050565b6006546001600160a01b0316331461080e5760405162461bcd60e51b815260206004820181905260248201527f4f776e61626c653a2063616c6c6572206973206e6f7420746865206f776e657260448201526064015b60405180910390fd5b600f5481600b5461081f91906129c2565b111561086d5760405162461bcd60e51b815260206004820152601160248201527f4e6f7420656e6f75676820737570706c790000000000000000000000000000006044820152606401610805565b600e5481106108be5760405162461bcd60e51b815260206004820152601960248201527f476976696e67206177617920746f6f206d616e79204e465473000000000000006044820152606401610805565b6000811161090e5760405162461bcd60e51b815260206004820181905260248201527f416d6f756e74206d7573742062652067726561746572207468616e207a65726f6044820152606401610805565b6109188282611b1b565b5050565b60606000805461092b90612a50565b80601f016020809104026020016040519081016040528092919081815260200182805461095790612a50565b80156109a45780601f10610979576101008083540402835291602001916109a4565b820191906000526020600020905b81548152906001019060200180831161098757829003601f168201915b5050505050905090565b6000818152600260205260408120546001600160a01b0316610a385760405162461bcd60e51b815260206004820152602c60248201527f4552433732313a20617070726f76656420717565727920666f72206e6f6e657860448201527f697374656e7420746f6b656e00000000000000000000000000000000000000006064820152608401610805565b506000908152600460205260409020546001600160a01b031690565b6006546001600160a01b03163314610aae5760405162461bcd60e51b815260206004820181905260248201527f4f776e61626c653a2063616c6c6572206973206e6f7420746865206f776e65726044820152606401610805565b600c805473ffffffffffffffffffffffffffffffffffffffff19166001600160a01b0392909216919091179055565b6000610ae882610f89565b9050806001600160a01b0316836001600160a01b03161415610b725760405162461bcd60e51b815260206004820152602160248201527f4552433732313a20617070726f76616c20746f2063757272656e74206f776e6560448201527f72000000000000000000000000000000000000000000000000000000000000006064820152608401610805565b336001600160a01b0382161480610b8e5750610b8e8133611923565b610c005760405162461bcd60e51b815260206004820152603860248201527f4552433732313a20617070726f76652063616c6c6572206973206e6f74206f7760448201527f6e6572206e6f7220617070726f76656420666f7220616c6c00000000000000006064820152608401610805565b610c0a8383611b57565b505050565b610c193382611bd2565b610c8b5760405162461bcd60e51b815260206004820152603160248201527f4552433732313a207472616e736665722063616c6c6572206973206e6f74206f60448201527f776e6572206e6f7220617070726f7665640000000000000000000000000000006064820152608401610805565b610c0a838383611cb2565b60008281526002602052604081205481906001600160a01b0316610cfc5760405162461bcd60e51b815260206004820152601160248201527f4e6f6e6578697374656e7420746f6b656e0000000000000000000000000000006044820152606401610805565b30610d12600d5485611e8c90919063ffffffff16565b915091509250929050565b6006546001600160a01b03163314610d775760405162461bcd60e51b815260206004820181905260248201527f4f776e61626c653a2063616c6c6572206973206e6f7420746865206f776e65726044820152606401610805565b47610dc45760405162461bcd60e51b815260206004820152600f60248201527f42616c616e6365206973207a65726f00000000000000000000000000000000006044820152606401610805565b610de4610dd2476014611e8c565b6011546001600160a01b031690611e98565b601254610dfa906001600160a01b031647611e98565b565b6009546000906001600160a01b03163314610e7f5760405162461bcd60e51b815260206004820152602260248201527f4f6e6c792067656e65736973204e465420636f6e74726163742063616e206d6960448201527f6e740000000000000000000000000000000000000000000000000000000000006064820152608401610805565b60038210610ecf5760405162461bcd60e51b815260206004820152601760248201527f4d696e74696e67206c696d6974732065786365656465640000000000000000006044820152606401610805565b60105482600b54610ee091906129c2565b1115610eee575060006107a9565b610ef88383611b1b565b50600192915050565b610c0a83838360405180602001604052806000815250611586565b6006546001600160a01b03163314610f765760405162461bcd60e51b815260206004820181905260248201527f4f776e61626c653a2063616c6c6572206973206e6f7420746865206f776e65726044820152606401610805565b8051610918906008906020840190612595565b6000818152600260205260408120546001600160a01b0316806107a95760405162461bcd60e51b815260206004820152602960248201527f4552433732313a206f776e657220717565727920666f72206e6f6e657869737460448201527f656e7420746f6b656e00000000000000000000000000000000000000000000006064820152608401610805565b60006001600160a01b0382166110925760405162461bcd60e51b815260206004820152602a60248201527f4552433732313a2062616c616e636520717565727920666f7220746865207a6560448201527f726f2061646472657373000000000000000000000000000000000000000000006064820152608401610805565b506001600160a01b031660009081526003602052604090205490565b3332146110fd5760405162461bcd60e51b815260206004820152601d60248201527f436f6e747261637473206e6f7420616c6c6f77656420746f206d696e740000006044820152606401610805565b600260075414156111505760405162461bcd60e51b815260206004820152601f60248201527f5265656e7472616e637947756172643a207265656e7472616e742063616c6c006044820152606401610805565b6002600755600a54604080517f2da5ea1700000000000000000000000000000000000000000000000000000000815290516001600160a01b0390921691632da5ea1791600480820192602092909190829003018186803b1580156111b357600080fd5b505afa1580156111c7573d6000803e3d6000fd5b505050506040513d601f19601f820116820180604052508101906111eb9190612829565b6112375760405162461bcd60e51b815260206004820152601460248201527f47656e65736973206e6f7420736f6c64206f75740000000000000000000000006044820152606401610805565b60105481600b5461124891906129c2565b11156112965760405162461bcd60e51b815260206004820152601160248201527f4e6f7420656e6f75676820737570706c790000000000000000000000000000006044820152606401610805565b6112a78166d529ae9e8600006129ee565b34146112f55760405162461bcd60e51b815260206004820152601960248201527f45746865722073656e74206973206e6f7420636f7272656374000000000000006044820152606401610805565b600081116113455760405162461bcd60e51b815260206004820152601860248201527f4d757374206d696e74206174206c656173742031204e465400000000000000006044820152606401610805565b600381106113955760405162461bcd60e51b815260206004820152601760248201527f4d696e74696e67206c696d6974732065786365656465640000000000000000006044820152606401610805565b61139f3382611b1b565b506001600755565b6006546001600160a01b031633146114015760405162461bcd60e51b815260206004820181905260248201527f4f776e61626c653a2063616c6c6572206973206e6f7420746865206f776e65726044820152606401610805565b610dfa6000611fb1565b60606001805461092b90612a50565b6001600160a01b0382163314156114735760405162461bcd60e51b815260206004820152601960248201527f4552433732313a20617070726f766520746f2063616c6c6572000000000000006044820152606401610805565b3360008181526005602090815260408083206001600160a01b0387168085529083529281902080547fffffffffffffffffffffffffffffffffffffffffffffffffffffffffffffff001686151590811790915590519081529192917f17307eab39ab6107e8899845ad3d59bd9653f200f220920489ca2b5937696c31910160405180910390a35050565b6006546001600160a01b031633146115575760405162461bcd60e51b815260206004820181905260248201527f4f776e61626c653a2063616c6c6572206973206e6f7420746865206f776e65726044820152606401610805565b6009805473ffffffffffffffffffffffffffffffffffffffff19166001600160a01b0392909216919091179055565b6115903383611bd2565b6116025760405162461bcd60e51b815260206004820152603160248201527f4552433732313a207472616e736665722063616c6c6572206973206e6f74206f60448201527f776e6572206e6f7220617070726f7665640000000000000000000000000000006064820152608401610805565b61160e84848484612010565b50505050565b6000818152600260205260409020546060906001600160a01b03166116a15760405162461bcd60e51b815260206004820152602f60248201527f4552433732314d657461646174613a2055524920717565727920666f72206e6f60448201527f6e6578697374656e7420746f6b656e00000000000000000000000000000000006064820152608401610805565b60006116ab612099565b905060008151116116cb57604051806020016040528060008152506116f6565b806116d5846120a8565b6040516020016116e6929190612944565b6040516020818303038152906040525b9392505050565b6006546001600160a01b031633146117575760405162461bcd60e51b815260206004820181905260248201527f4f776e61626c653a2063616c6c6572206973206e6f7420746865206f776e65726044820152606401610805565b600d55565b6008805461176990612a50565b80601f016020809104026020016040519081016040528092919081815260200182805461179590612a50565b80156117e25780601f106117b7576101008083540402835291602001916117e2565b820191906000526020600020905b8154815290600101906020018083116117c557829003601f168201915b505050505081565b6006546001600160a01b031633146118445760405162461bcd60e51b815260206004820181905260248201527f4f776e61626c653a2063616c6c6572206973206e6f7420746865206f776e65726044820152606401610805565b601180546001600160a01b0393841673ffffffffffffffffffffffffffffffffffffffff199182161790915560128054929093169116179055565b6006546001600160a01b031633146118d95760405162461bcd60e51b815260206004820181905260248201527f4f776e61626c653a2063616c6c6572206973206e6f7420746865206f776e65726044820152606401610805565b600c805491151574010000000000000000000000000000000000000000027fffffffffffffffffffffff00ffffffffffffffffffffffffffffffffffffffff909216919091179055565b600c546000906001600160a01b0381169074010000000000000000000000000000000000000000900460ff1680156119f857506040517fc45527910000000000000000000000000000000000000000000000000000000081526001600160a01b038581166004830152808516919083169063c45527919060240160206040518083038186803b1580156119b557600080fd5b505afa1580156119c9573d6000803e3d6000fd5b505050506040513d601f19601f820116820180604052508101906119ed919061287d565b6001600160a01b0316145b15611a075760019150506107a9565b6001600160a01b0380851660009081526005602090815260408083209387168352929052205460ff165b949350505050565b6006546001600160a01b03163314611a935760405162461bcd60e51b815260206004820181905260248201527f4f776e61626c653a2063616c6c6572206973206e6f7420746865206f776e65726044820152606401610805565b6001600160a01b038116611b0f5760405162461bcd60e51b815260206004820152602660248201527f4f776e61626c653a206e6577206f776e657220697320746865207a65726f206160448201527f64647265737300000000000000000000000000000000000000000000000000006064820152608401610805565b611b1881611fb1565b50565b60005b81811015610c0a57600b8054611b45918591906000611b3c83612a8b565b919050556121f6565b80611b4f81612a8b565b915050611b1e565b6000818152600460205260409020805473ffffffffffffffffffffffffffffffffffffffff19166001600160a01b0384169081179091558190611b9982610f89565b6001600160a01b03167f8c5be1e5ebec7d5bd14f71427d1e84f3dd0314c0f7b2291e5b200ac8c7c3b92560405160405180910390a45050565b6000818152600260205260408120546001600160a01b0316611c5c5760405162461bcd60e51b815260206004820152602c60248201527f4552433732313a206f70657261746f7220717565727920666f72206e6f6e657860448201527f697374656e7420746f6b656e00000000000000000000000000000000000000006064820152608401610805565b6000611c6783610f89565b9050806001600160a01b0316846001600160a01b03161480611ca25750836001600160a01b0316611c97846109ae565b6001600160a01b0316145b80611a315750611a318185611923565b826001600160a01b0316611cc582610f89565b6001600160a01b031614611d415760405162461bcd60e51b815260206004820152602960248201527f4552433732313a207472616e73666572206f6620746f6b656e2074686174206960448201527f73206e6f74206f776e00000000000000000000000000000000000000000000006064820152608401610805565b6001600160a01b038216611dbc5760405162461bcd60e51b8152602060048201526024808201527f4552433732313a207472616e7366657220746f20746865207a65726f2061646460448201527f72657373000000000000000000000000000000000000000000000000000000006064820152608401610805565b611dc7600082611b57565b6001600160a01b0383166000908152600360205260408120805460019290611df0908490612a0d565b90915550506001600160a01b0382166000908152600360205260408120805460019290611e1e9084906129c2565b9091555050600081815260026020526040808220805473ffffffffffffffffffffffffffffffffffffffff19166001600160a01b0386811691821790925591518493918716917fddf252ad1be2c89b69c2b068fc378daa952ba7f163c4a11628f55a4df523b3ef91a4505050565b60006116f682846129da565b80471015611ee85760405162461bcd60e51b815260206004820152601d60248201527f416464726573733a20696e73756666696369656e742062616c616e63650000006044820152606401610805565b6000826001600160a01b03168260405160006040518083038185875af1925050503d8060008114611f35576040519150601f19603f3d011682016040523d82523d6000602084013e611f3a565b606091505b5050905080610c0a5760405162461bcd60e51b815260206004820152603a60248201527f416464726573733a20756e61626c6520746f2073656e642076616c75652c207260448201527f6563697069656e74206d617920686176652072657665727465640000000000006064820152608401610805565b600680546001600160a01b0383811673ffffffffffffffffffffffffffffffffffffffff19831681179093556040519116919082907f8be0079c531659141344cd1fd0a4f28419497f9722a3daafe3b4186f6b6457e090600090a35050565b61201b848484611cb2565b61202784848484612210565b61160e5760405162461bcd60e51b815260206004820152603260248201527f4552433732313a207472616e7366657220746f206e6f6e20455243373231526560448201527f63656976657220696d706c656d656e74657200000000000000000000000000006064820152608401610805565b60606008805461092b90612a50565b6060816120e857505060408051808201909152600181527f3000000000000000000000000000000000000000000000000000000000000000602082015290565b8160005b811561211257806120fc81612a8b565b915061210b9050600a836129da565b91506120ec565b60008167ffffffffffffffff81111561213b57634e487b7160e01b600052604160045260246000fd5b6040519080825280601f01601f191660200182016040528015612165576020820181803683370190505b5090505b8415611a315761217a600183612a0d565b9150612187600a86612aa6565b6121929060306129c2565b60f81b8183815181106121b557634e487b7160e01b600052603260045260246000fd5b60200101907effffffffffffffffffffffffffffffffffffffffffffffffffffffffffffff1916908160001a9053506121ef600a866129da565b9450612169565b6109188282604051806020016040528060008152506123bd565b60006001600160a01b0384163b156123b2576040517f150b7a020000000000000000000000000000000000000000000000000000000081526001600160a01b0385169063150b7a029061226d903390899088908890600401612973565b602060405180830381600087803b15801561228757600080fd5b505af19250505080156122b7575060408051601f3d908101601f191682019092526122b491810190612861565b60015b612367573d8080156122e5576040519150601f19603f3d011682016040523d82523d6000602084013e6122ea565b606091505b50805161235f5760405162461bcd60e51b815260206004820152603260248201527f4552433732313a207472616e7366657220746f206e6f6e20455243373231526560448201527f63656976657220696d706c656d656e74657200000000000000000000000000006064820152608401610805565b805181602001fd5b7fffffffff00000000000000000000000000000000000000000000000000000000167f150b7a0200000000000000000000000000000000000000000000000000000000149050611a31565b506001949350505050565b6123c78383612446565b6123d46000848484612210565b610c0a5760405162461bcd60e51b815260206004820152603260248201527f4552433732313a207472616e7366657220746f206e6f6e20455243373231526560448201527f63656976657220696d706c656d656e74657200000000000000000000000000006064820152608401610805565b6001600160a01b03821661249c5760405162461bcd60e51b815260206004820181905260248201527f4552433732313a206d696e7420746f20746865207a65726f20616464726573736044820152606401610805565b6000818152600260205260409020546001600160a01b0316156125015760405162461bcd60e51b815260206004820152601c60248201527f4552433732313a20746f6b656e20616c7265616479206d696e746564000000006044820152606401610805565b6001600160a01b038216600090815260036020526040812080546001929061252a9084906129c2565b9091555050600081815260026020526040808220805473ffffffffffffffffffffffffffffffffffffffff19166001600160a01b03861690811790915590518392907fddf252ad1be2c89b69c2b068fc378daa952ba7f163c4a11628f55a4df523b3ef908290a45050565b8280546125a190612a50565b90600052602060002090601f0160209004810192826125c35760008555612609565b82601f106125dc57805160ff1916838001178555612609565b82800160010185558215612609579182015b828111156126095782518255916020019190600101906125ee565b50612615929150612619565b5090565b5b80821115612615576000815560010161261a565b600067ffffffffffffffff8084111561264957612649612ae6565b604051601f8501601f19908116603f0116810190828211818310171561267157612671612ae6565b8160405280935085815286868601111561268a57600080fd5b858560208301376000602087830101525050509392505050565b6000602082840312156126b5578081fd5b81356116f681612afc565b600080604083850312156126d2578081fd5b82356126dd81612afc565b915060208301356126ed81612afc565b809150509250929050565b60008060006060848603121561270c578081fd5b833561271781612afc565b9250602084013561272781612afc565b929592945050506040919091013590565b6000806000806080858703121561274d578081fd5b843561275881612afc565b9350602085013561276881612afc565b925060408501359150606085013567ffffffffffffffff81111561278a578182fd5b8501601f8101871361279a578182fd5b6127a98782356020840161262e565b91505092959194509250565b600080604083850312156127c7578182fd5b82356127d281612afc565b915060208301356126ed81612b11565b600080604083850312156127f4578182fd5b82356127ff81612afc565b946020939093013593505050565b60006020828403121561281e578081fd5b81356116f681612b11565b60006020828403121561283a578081fd5b81516116f681612b11565b600060208284031215612856578081fd5b81356116f681612b1f565b600060208284031215612872578081fd5b81516116f681612b1f565b60006020828403121561288e578081fd5b81516116f681612afc565b6000602082840312156128aa578081fd5b813567ffffffffffffffff8111156128c0578182fd5b8201601f810184136128d0578182fd5b611a318482356020840161262e565b6000602082840312156128f0578081fd5b5035919050565b60008060408385031215612909578182fd5b50508035926020909101359150565b60008151808452612930816020860160208601612a24565b601f01601f19169290920160200192915050565b60008351612956818460208801612a24565b83519083019061296a818360208801612a24565b01949350505050565b60006001600160a01b038087168352808616602084015250836040830152608060608301526129a56080830184612918565b9695505050505050565b6020815260006116f66020830184612918565b600082198211156129d5576129d5612aba565b500190565b6000826129e9576129e9612ad0565b500490565b6000816000190483118215151615612a0857612a08612aba565b500290565b600082821015612a1f57612a1f612aba565b500390565b60005b83811015612a3f578181015183820152602001612a27565b8381111561160e5750506000910152565b600181811c90821680612a6457607f821691505b60208210811415612a8557634e487b7160e01b600052602260045260246000fd5b50919050565b6000600019821415612a9f57612a9f612aba565b5060010190565b600082612ab557612ab5612ad0565b500690565b634e487b7160e01b600052601160045260246000fd5b634e487b7160e01b600052601260045260246000fd5b634e487b7160e01b600052604160045260246000fd5b6001600160a01b0381168114611b1857600080fd5b8015158114611b1857600080fd5b7fffffffff0000000000000000000000000000000000000000000000000000000081168114611b1857600080fdfea2646970667358221220383af2fb3137d91a51911576e8f62098616f6448b6f7c452a415f0230d49b0a964736f6c63430008040033",
  "linkReferences": {},
  "deployedLinkReferences": {}
}