{
    "_format": "hh-sol-artifact-1",
    "contractName": "Component3",
    "sourceName": "contracts/Component3.sol",
    "abi": [
        {
            "inputs": [
                {
                    "internalType": "address",
                    "name": "_openSeaProxyRegistryAddress",
                    "type": "address"
                }
            ],
            "stateMutability": "nonpayable",
            "type": "constructor"
        },
        {
            "anonymous": false,
            "inputs": [
                {
                    "indexed": true,
                    "internalType": "address",
                    "name": "owner",
                    "type": "address"
                },
                {
                    "indexed": true,
                    "internalType": "address",
                    "name": "approved",
                    "type": "address"
                },
                {
                    "indexed": true,
                    "internalType": "uint256",
                    "name": "tokenId",
                    "type": "uint256"
                }
            ],
            "name": "Approval",
            "type": "event"
        },
        {
            "anonymous": false,
            "inputs": [
                {
                    "indexed": true,
                    "internalType": "address",
                    "name": "owner",
                    "type": "address"
                },
                {
                    "indexed": true,
                    "internalType": "address",
                    "name": "operator",
                    "type": "address"
                },
                {
                    "indexed": false,
                    "internalType": "bool",
                    "name": "approved",
                    "type": "bool"
                }
            ],
            "name": "ApprovalForAll",
            "type": "event"
        },
        {
            "anonymous": false,
            "inputs": [
                {
                    "indexed": true,
                    "internalType": "address",
                    "name": "previousOwner",
                    "type": "address"
                },
                {
                    "indexed": true,
                    "internalType": "address",
                    "name": "newOwner",
                    "type": "address"
                }
            ],
            "name": "OwnershipTransferred",
            "type": "event"
        },
        {
            "anonymous": false,
            "inputs": [
                {
                    "indexed": true,
                    "internalType": "address",
                    "name": "from",
                    "type": "address"
                },
                {
                    "indexed": true,
                    "internalType": "address",
                    "name": "to",
                    "type": "address"
                },
                {
                    "indexed": true,
                    "internalType": "uint256",
                    "name": "tokenId",
                    "type": "uint256"
                }
            ],
            "name": "Transfer",
            "type": "event"
        },
        {
            "inputs": [],
            "name": "MerkleRoot",
            "outputs": [
                {
                    "internalType": "bytes32",
                    "name": "",
                    "type": "bytes32"
                }
            ],
            "stateMutability": "view",
            "type": "function"
        },
        {
            "inputs": [
                {
                    "internalType": "address",
                    "name": "to",
                    "type": "address"
                },
                {
                    "internalType": "uint256",
                    "name": "tokenId",
                    "type": "uint256"
                }
            ],
            "name": "approve",
            "outputs": [],
            "stateMutability": "nonpayable",
            "type": "function"
        },
        {
            "inputs": [
                {
                    "internalType": "address",
                    "name": "owner",
                    "type": "address"
                }
            ],
            "name": "balanceOf",
            "outputs": [
                {
                    "internalType": "uint256",
                    "name": "",
                    "type": "uint256"
                }
            ],
            "stateMutability": "view",
            "type": "function"
        },
        {
            "inputs": [],
            "name": "baseTokenURI",
            "outputs": [
                {
                    "internalType": "string",
                    "name": "",
                    "type": "string"
                }
            ],
            "stateMutability": "view",
            "type": "function"
        },
        {
            "inputs": [
                {
                    "internalType": "uint256",
                    "name": "tokenId",
                    "type": "uint256"
                }
            ],
            "name": "burn",
            "outputs": [],
            "stateMutability": "nonpayable",
            "type": "function"
        },
        {
            "inputs": [
                {
                    "internalType": "address",
                    "name": "_sender",
                    "type": "address"
                },
                {
                    "internalType": "bytes32[]",
                    "name": "proof",
                    "type": "bytes32[]"
                },
                {
                    "internalType": "bytes1",
                    "name": "key",
                    "type": "bytes1"
                }
            ],
            "name": "checkProofWithKey",
            "outputs": [
                {
                    "internalType": "bool",
                    "name": "",
                    "type": "bool"
                }
            ],
            "stateMutability": "view",
            "type": "function"
        },
        {
            "inputs": [
                {
                    "internalType": "bytes32[]",
                    "name": "_proof",
                    "type": "bytes32[]"
                },
                {
                    "internalType": "bytes1",
                    "name": "_allowance",
                    "type": "bytes1"
                },
                {
                    "internalType": "uint8",
                    "name": "_amount",
                    "type": "uint8"
                }
            ],
            "name": "claim",
            "outputs": [],
            "stateMutability": "nonpayable",
            "type": "function"
        },
        {
            "inputs": [
                {
                    "internalType": "uint256",
                    "name": "tokenId",
                    "type": "uint256"
                }
            ],
            "name": "getApproved",
            "outputs": [
                {
                    "internalType": "address",
                    "name": "",
                    "type": "address"
                }
            ],
            "stateMutability": "view",
            "type": "function"
        },
        {
            "inputs": [
                {
                    "internalType": "address",
                    "name": "owner",
                    "type": "address"
                },
                {
                    "internalType": "address",
                    "name": "operator",
                    "type": "address"
                }
            ],
            "name": "isApprovedForAll",
            "outputs": [
                {
                    "internalType": "bool",
                    "name": "",
                    "type": "bool"
                }
            ],
            "stateMutability": "view",
            "type": "function"
        },
        {
            "inputs": [],
            "name": "name",
            "outputs": [
                {
                    "internalType": "string",
                    "name": "",
                    "type": "string"
                }
            ],
            "stateMutability": "view",
            "type": "function"
        },
        {
            "inputs": [],
            "name": "owner",
            "outputs": [
                {
                    "internalType": "address",
                    "name": "",
                    "type": "address"
                }
            ],
            "stateMutability": "view",
            "type": "function"
        },
        {
            "inputs": [
                {
                    "internalType": "uint256",
                    "name": "tokenId",
                    "type": "uint256"
                }
            ],
            "name": "ownerOf",
            "outputs": [
                {
                    "internalType": "address",
                    "name": "",
                    "type": "address"
                }
            ],
            "stateMutability": "view",
            "type": "function"
        },
        {
            "inputs": [],
            "name": "renounceOwnership",
            "outputs": [],
            "stateMutability": "nonpayable",
            "type": "function"
        },
        {
            "inputs": [],
            "name": "royaltyDivisor",
            "outputs": [
                {
                    "internalType": "uint8",
                    "name": "",
                    "type": "uint8"
                }
            ],
            "stateMutability": "view",
            "type": "function"
        },
        {
            "inputs": [
                {
                    "internalType": "uint256",
                    "name": "tokenId",
                    "type": "uint256"
                },
                {
                    "internalType": "uint256",
                    "name": "salePrice",
                    "type": "uint256"
                }
            ],
            "name": "royaltyInfo",
            "outputs": [
                {
                    "internalType": "address",
                    "name": "receiver",
                    "type": "address"
                },
                {
                    "internalType": "uint256",
                    "name": "royaltyAmount",
                    "type": "uint256"
                }
            ],
            "stateMutability": "view",
            "type": "function"
        },
        {
            "inputs": [
                {
                    "internalType": "address",
                    "name": "from",
                    "type": "address"
                },
                {
                    "internalType": "address",
                    "name": "to",
                    "type": "address"
                },
                {
                    "internalType": "uint256",
                    "name": "tokenId",
                    "type": "uint256"
                }
            ],
            "name": "safeTransferFrom",
            "outputs": [],
            "stateMutability": "nonpayable",
            "type": "function"
        },
        {
            "inputs": [
                {
                    "internalType": "address",
                    "name": "from",
                    "type": "address"
                },
                {
                    "internalType": "address",
                    "name": "to",
                    "type": "address"
                },
                {
                    "internalType": "uint256",
                    "name": "tokenId",
                    "type": "uint256"
                },
                {
                    "internalType": "bytes",
                    "name": "_data",
                    "type": "bytes"
                }
            ],
            "name": "safeTransferFrom",
            "outputs": [],
            "stateMutability": "nonpayable",
            "type": "function"
        },
        {
            "inputs": [],
            "name": "saleIsActive",
            "outputs": [
                {
                    "internalType": "bool",
                    "name": "",
                    "type": "bool"
                }
            ],
            "stateMutability": "view",
            "type": "function"
        },
        {
            "inputs": [
                {
                    "internalType": "address",
                    "name": "operator",
                    "type": "address"
                },
                {
                    "internalType": "bool",
                    "name": "approved",
                    "type": "bool"
                }
            ],
            "name": "setApprovalForAll",
            "outputs": [],
            "stateMutability": "nonpayable",
            "type": "function"
        },
        {
            "inputs": [
                {
                    "internalType": "string",
                    "name": "_uri",
                    "type": "string"
                }
            ],
            "name": "setBaseURI",
            "outputs": [],
            "stateMutability": "nonpayable",
            "type": "function"
        },
        {
            "inputs": [
                {
                    "internalType": "bool",
                    "name": "_isOpenSeaProxyActive",
                    "type": "bool"
                }
            ],
            "name": "setIsOpenSeaProxyActive",
            "outputs": [],
            "stateMutability": "nonpayable",
            "type": "function"
        },
        {
            "inputs": [
                {
                    "internalType": "bytes32",
                    "name": "_root",
                    "type": "bytes32"
                }
            ],
            "name": "setMerkleRoot",
            "outputs": [],
            "stateMutability": "nonpayable",
            "type": "function"
        },
        {
            "inputs": [
                {
                    "internalType": "address",
                    "name": "_openSeaProxyRegistryAddress",
                    "type": "address"
                }
            ],
            "name": "setOpenSeaProxyRegistryAddress",
            "outputs": [],
            "stateMutability": "nonpayable",
            "type": "function"
        },
        {
            "inputs": [
                {
                    "internalType": "uint8",
                    "name": "_divisor",
                    "type": "uint8"
                }
            ],
            "name": "setRoyaltyDivisor",
            "outputs": [],
            "stateMutability": "nonpayable",
            "type": "function"
        },
        {
            "inputs": [
                {
                    "internalType": "bytes4",
                    "name": "interfaceId",
                    "type": "bytes4"
                }
            ],
            "name": "supportsInterface",
            "outputs": [
                {
                    "internalType": "bool",
                    "name": "",
                    "type": "bool"
                }
            ],
            "stateMutability": "view",
            "type": "function"
        },
        {
            "inputs": [],
            "name": "switchSaleState",
            "outputs": [],
            "stateMutability": "nonpayable",
            "type": "function"
        },
        {
            "inputs": [],
            "name": "symbol",
            "outputs": [
                {
                    "internalType": "string",
                    "name": "",
                    "type": "string"
                }
            ],
            "stateMutability": "view",
            "type": "function"
        },
        {
            "inputs": [],
            "name": "tokenCount",
            "outputs": [
                {
                    "internalType": "uint16",
                    "name": "",
                    "type": "uint16"
                }
            ],
            "stateMutability": "view",
            "type": "function"
        },
        {
            "inputs": [
                {
                    "internalType": "uint256",
                    "name": "tokenId",
                    "type": "uint256"
                }
            ],
            "name": "tokenURI",
            "outputs": [
                {
                    "internalType": "string",
                    "name": "",
                    "type": "string"
                }
            ],
            "stateMutability": "view",
            "type": "function"
        },
        {
            "inputs": [
                {
                    "internalType": "address",
                    "name": "from",
                    "type": "address"
                },
                {
                    "internalType": "address",
                    "name": "to",
                    "type": "address"
                },
                {
                    "internalType": "uint256",
                    "name": "tokenId",
                    "type": "uint256"
                }
            ],
            "name": "transferFrom",
            "outputs": [],
            "stateMutability": "nonpayable",
            "type": "function"
        },
        {
            "inputs": [
                {
                    "internalType": "address",
                    "name": "newOwner",
                    "type": "address"
                }
            ],
            "name": "transferOwnership",
            "outputs": [],
            "stateMutability": "nonpayable",
            "type": "function"
        },
        {
            "inputs": [
                {
                    "internalType": "address",
                    "name": "",
                    "type": "address"
                }
            ],
            "name": "userClaims",
            "outputs": [
                {
                    "internalType": "uint8",
                    "name": "",
                    "type": "uint8"
                }
            ],
            "stateMutability": "view",
            "type": "function"
        }
    ],
    "bytecode": "0x6006805460ff60a01b1916905560e06040526035608081815290620028d760a03980516200003691600791602090910190620001b1565b5060088054631400000063ffffffff199091161790557f3f451c6e332b009042048f7f6805da493b3d9cb5c552f8847101be163b3d0fd0600955600a805460ff60a01b1916600160a01b1790553480156200009057600080fd5b506040516200290c3803806200290c833981016040819052620000b39162000257565b604051806060016040528060258152602001620028b260259139604051806040016040528060048152602001630504150560e41b815250816000908051906020019062000102929190620001b1565b50805162000118906001906020840190620001b1565b505050620001356200012f6200015b60201b60201c565b6200015f565b600a80546001600160a01b0319166001600160a01b0392909216919091179055620002c6565b3390565b600680546001600160a01b038381166001600160a01b0319831681179093556040519116919082907f8be0079c531659141344cd1fd0a4f28419497f9722a3daafe3b4186f6b6457e090600090a35050565b828054620001bf9062000289565b90600052602060002090601f016020900481019282620001e357600085556200022e565b82601f10620001fe57805160ff19168380011785556200022e565b828001600101855582156200022e579182015b828111156200022e57825182559160200191906001019062000211565b506200023c92915062000240565b5090565b5b808211156200023c576000815560010162000241565b6000602082840312156200026a57600080fd5b81516001600160a01b03811681146200028257600080fd5b9392505050565b600181811c908216806200029e57607f821691505b60208210811415620002c057634e487b7160e01b600052602260045260246000fd5b50919050565b6125dc80620002d66000396000f3fe608060405234801561001057600080fd5b50600436106101f05760003560e01c80638da5cb5b1161010f578063d547cfb7116100a2578063ec9b1d6011610071578063ec9b1d601461045b578063efc4f1dc1461046e578063f0a3563c14610476578063f2fde38b1461049957600080fd5b8063d547cfb71461041a578063e43082f714610422578063e985e9c514610435578063eb8d24441461044857600080fd5b80639f181b5e116100de5780639f181b5e146103c0578063a22cb465146103e1578063b88d4fde146103f4578063c87b56dd1461040757600080fd5b80638da5cb5b1461036e578063901b201d1461037f578063901b4ad5146103a557806395d89b41146103b857600080fd5b806342842e0e116101875780636b79b745116101565780636b79b7451461032d57806370a0823114610340578063715018a6146103535780637cb647591461035b57600080fd5b806342842e0e146102e157806342966c68146102f457806355f804b3146103075780636352211e1461031a57600080fd5b8063095ea7b3116101c3578063095ea7b314610272578063132d3f6a1461028557806323b872dd1461029c5780632a55205a146102af57600080fd5b806301ffc9a7146101f557806306fdde031461021d578063081812fc1461023257806308abf0261461025d575b600080fd5b610208610203366004611ebe565b6104ac565b60405190151581526020015b60405180910390f35b610225610549565b6040516102149190611f2f565b610245610240366004611f42565b6105db565b6040516001600160a01b039091168152602001610214565b61027061026b366004611f70565b610668565b005b610270610280366004611f8d565b6106e4565b61028e60095481565b604051908152602001610214565b6102706102aa366004611fb9565b610816565b6102c26102bd366004611ffa565b61089e565b604080516001600160a01b039093168352602083019190915201610214565b6102706102ef366004611fb9565b61092e565b610270610302366004611f42565b610949565b6102706103153660046120bb565b6109aa565b610245610328366004611f42565b610a1b565b61020861033b3660046121b9565b610abb565b61028e61034e366004611f70565b610b38565b610270610c23565b610270610369366004611f42565b610c89565b6006546001600160a01b0316610245565b600854610393906301000000900460ff1681565b60405160ff9091168152602001610214565b6102706103b336600461222a565b610ce8565b610225610d62565b6008546103ce9061ffff1681565b60405161ffff9091168152602001610214565b6102706103ef366004612255565b610d71565b61027061040236600461228a565b610d7c565b610225610415366004611f42565b610e0a565b610225610eaf565b61027061043036600461230a565b610f3d565b610208610443366004612325565b610fb5565b6008546102089062010000900460ff1681565b61027061046936600461235e565b6110ab565b610270611406565b610393610484366004611f70565b600b6020526000908152604090205460ff1681565b6102706104a7366004611f70565b61147f565b60006001600160e01b031982167f80ac58cd00000000000000000000000000000000000000000000000000000000148061050f57506001600160e01b031982167f5b5e139f00000000000000000000000000000000000000000000000000000000145b8061054357507f01ffc9a7000000000000000000000000000000000000000000000000000000006001600160e01b03198316145b92915050565b606060008054610558906123b3565b80601f0160208091040260200160405190810160405280929190818152602001828054610584906123b3565b80156105d15780601f106105a6576101008083540402835291602001916105d1565b820191906000526020600020905b8154815290600101906020018083116105b457829003601f168201915b5050505050905090565b60006105e68261155e565b61064c5760405162461bcd60e51b815260206004820152602c60248201527f4552433732313a20617070726f76656420717565727920666f72206e6f6e657860448201526b34b9ba32b73a103a37b5b2b760a11b60648201526084015b60405180910390fd5b506000908152600460205260409020546001600160a01b031690565b6006546001600160a01b031633146106c25760405162461bcd60e51b815260206004820181905260248201527f4f776e61626c653a2063616c6c6572206973206e6f7420746865206f776e65726044820152606401610643565b600a80546001600160a01b0319166001600160a01b0392909216919091179055565b60006106ef82610a1b565b9050806001600160a01b0316836001600160a01b031614156107795760405162461bcd60e51b815260206004820152602160248201527f4552433732313a20617070726f76616c20746f2063757272656e74206f776e6560448201527f72000000000000000000000000000000000000000000000000000000000000006064820152608401610643565b336001600160a01b038216148061079557506107958133610fb5565b6108075760405162461bcd60e51b815260206004820152603860248201527f4552433732313a20617070726f76652063616c6c6572206973206e6f74206f7760448201527f6e6572206e6f7220617070726f76656420666f7220616c6c00000000000000006064820152608401610643565b61081183836115a8565b505050565b610821335b82611616565b6108935760405162461bcd60e51b815260206004820152603160248201527f4552433732313a207472616e736665722063616c6c6572206973206e6f74206f60448201527f776e6572206e6f7220617070726f7665640000000000000000000000000000006064820152608401610643565b6108118383836116d8565b6000806108aa8461155e565b6108f65760405162461bcd60e51b815260206004820152601160248201527f4e6f6e6578697374656e7420746f6b656e0000000000000000000000000000006044820152606401610643565b60085473218b622bbe4404c01f972f243952e3a1d2132dec90610923906301000000900460ff1685612404565b915091509250929050565b61081183838360405180602001604052806000815250610d7c565b6109523361081b565b61099e5760405162461bcd60e51b815260206004820181905260248201527f63616c6c6572206973206e6f74206f776e6572206e6f7220617070726f7665646044820152606401610643565b6109a78161185b565b50565b6006546001600160a01b03163314610a045760405162461bcd60e51b815260206004820181905260248201527f4f776e61626c653a2063616c6c6572206973206e6f7420746865206f776e65726044820152606401610643565b8051610a17906007906020840190611e0f565b5050565b60008060038381548110610a3157610a31612426565b6000918252602090912001546001600160a01b03169050806105435760405162461bcd60e51b815260206004820152602960248201527f4552433732313a206f776e657220717565727920666f72206e6f6e657869737460448201527f656e7420746f6b656e00000000000000000000000000000000000000000000006064820152608401610643565b6040516bffffffffffffffffffffffff19606085901b1660208201527fff000000000000000000000000000000000000000000000000000000000000008216603482015260009081906035016040516020818303038152906040528051906020012090506000610b2e85600954846118dd565b9695505050505050565b60006001600160a01b038216610bb65760405162461bcd60e51b815260206004820152602a60248201527f4552433732313a2062616c616e636520717565727920666f7220746865207a6560448201527f726f2061646472657373000000000000000000000000000000000000000000006064820152608401610643565b6000805b600354811015610c1c57836001600160a01b031660038281548110610be157610be1612426565b6000918252602090912001546001600160a01b03161415610c0a5781610c068161243c565b9250505b80610c148161243c565b915050610bba565b5092915050565b6006546001600160a01b03163314610c7d5760405162461bcd60e51b815260206004820181905260248201527f4f776e61626c653a2063616c6c6572206973206e6f7420746865206f776e65726044820152606401610643565b610c8760006118f3565b565b6006546001600160a01b03163314610ce35760405162461bcd60e51b815260206004820181905260248201527f4f776e61626c653a2063616c6c6572206973206e6f7420746865206f776e65726044820152606401610643565b600955565b6006546001600160a01b03163314610d425760405162461bcd60e51b815260206004820181905260248201527f4f776e61626c653a2063616c6c6572206973206e6f7420746865206f776e65726044820152606401610643565b6008805460ff90921663010000000263ff00000019909216919091179055565b606060018054610558906123b3565b610a17338383611945565b610d863383611616565b610df85760405162461bcd60e51b815260206004820152603160248201527f4552433732313a207472616e736665722063616c6c6572206973206e6f74206f60448201527f776e6572206e6f7220617070726f7665640000000000000000000000000000006064820152608401610643565b610e0484848484611a14565b50505050565b6060610e158261155e565b610e875760405162461bcd60e51b815260206004820152602f60248201527f4552433732314d657461646174613a2055524920717565727920666f72206e6f60448201527f6e6578697374656e7420746f6b656e00000000000000000000000000000000006064820152608401610643565b6007604051602001610e999190612457565b6040516020818303038152906040529050919050565b60078054610ebc906123b3565b80601f0160208091040260200160405190810160405280929190818152602001828054610ee8906123b3565b8015610f355780601f10610f0a57610100808354040283529160200191610f35565b820191906000526020600020905b815481529060010190602001808311610f1857829003601f168201915b505050505081565b6006546001600160a01b03163314610f975760405162461bcd60e51b815260206004820181905260248201527f4f776e61626c653a2063616c6c6572206973206e6f7420746865206f776e65726044820152606401610643565b600a8054911515600160a01b0260ff60a01b19909216919091179055565b600a546000906001600160a01b03811690600160a01b900460ff16801561106a57506040517fc45527910000000000000000000000000000000000000000000000000000000081526001600160a01b038581166004830152808516919083169063c455279190602401602060405180830381865afa15801561103b573d6000803e3d6000fd5b505050506040513d601f19601f8201168201806040525081019061105f91906124f3565b6001600160a01b0316145b15611079576001915050610543565b6001600160a01b0380851660009081526005602090815260408083209387168352929052205460ff165b949350505050565b600654600160a01b900460ff16156111055760405162461bcd60e51b815260206004820181905260248201527f63616e6e6f74207265656e7465722061206c6f636b65642066756e6374696f6e6044820152606401610643565b6006805460ff60a01b1916600160a01b17905560085462010000900460ff166111705760405162461bcd60e51b815260206004820152601260248201527f53616c65206973206e6f742061637469766500000000000000000000000000006044820152606401610643565b60008160ff16116111c35760405162461bcd60e51b815260206004820152600d60248201527f43616e6e6f74206d696e742030000000000000000000000000000000000000006044820152606401610643565b6111d260f883901c6001612510565b60ff168160ff16106112265760405162461bcd60e51b815260206004820152601260248201527f416c6c6f77616e636520657863656564656400000000000000000000000000006044820152606401610643565b6009546040516bffffffffffffffffffffffff193360601b1660208201527fff0000000000000000000000000000000000000000000000000000000000000084166034820152611290918591603501604051602081830303815290604052805190602001206118dd565b6112dc5760405162461bcd60e51b815260206004820152600c60248201527f556e617574686f72697a656400000000000000000000000000000000000000006044820152606401610643565b6112eb60f883901c6001612510565b336000908152600b602052604090205460ff9182169161130d91849116612510565b60ff161061135d5760405162461bcd60e51b815260206004820152601660248201527f45786365656473207573657220616c6c6f77616e6365000000000000000000006044820152606401610643565b336000908152600b60205260408120805483929061137f90849060ff16612510565b92506101000a81548160ff021916908360ff16021790555060005b8160ff168110156113f357600880546113e19133916000906113bf9061ffff16612535565b91906101000a81548161ffff021916908361ffff160217905561ffff16611a92565b806113eb8161243c565b91505061139a565b50506006805460ff60a01b191690555050565b6006546001600160a01b031633146114605760405162461bcd60e51b815260206004820181905260248201527f4f776e61626c653a2063616c6c6572206973206e6f7420746865206f776e65726044820152606401610643565b6008805462ff0000198116620100009182900460ff1615909102179055565b6006546001600160a01b031633146114d95760405162461bcd60e51b815260206004820181905260248201527f4f776e61626c653a2063616c6c6572206973206e6f7420746865206f776e65726044820152606401610643565b6001600160a01b0381166115555760405162461bcd60e51b815260206004820152602660248201527f4f776e61626c653a206e6577206f776e657220697320746865207a65726f206160448201527f64647265737300000000000000000000000000000000000000000000000000006064820152608401610643565b6109a7816118f3565b60035460009082108015610543575060006001600160a01b03166003838154811061158b5761158b612426565b6000918252602090912001546001600160a01b0316141592915050565b600081815260046020526040902080546001600160a01b0319166001600160a01b03841690811790915581906115dd82610a1b565b6001600160a01b03167f8c5be1e5ebec7d5bd14f71427d1e84f3dd0314c0f7b2291e5b200ac8c7c3b92560405160405180910390a45050565b60006116218261155e565b6116825760405162461bcd60e51b815260206004820152602c60248201527f4552433732313a206f70657261746f7220717565727920666f72206e6f6e657860448201526b34b9ba32b73a103a37b5b2b760a11b6064820152608401610643565b600061168d83610a1b565b9050806001600160a01b0316846001600160a01b031614806116c85750836001600160a01b03166116bd846105db565b6001600160a01b0316145b806110a357506110a38185610fb5565b826001600160a01b03166116eb82610a1b565b6001600160a01b0316146117675760405162461bcd60e51b815260206004820152602960248201527f4552433732313a207472616e73666572206f6620746f6b656e2074686174206960448201527f73206e6f74206f776e00000000000000000000000000000000000000000000006064820152608401610643565b6001600160a01b0382166117e25760405162461bcd60e51b8152602060048201526024808201527f4552433732313a207472616e7366657220746f20746865207a65726f2061646460448201527f72657373000000000000000000000000000000000000000000000000000000006064820152608401610643565b6117ed6000826115a8565b816003828154811061180157611801612426565b6000918252602082200180546001600160a01b0319166001600160a01b03938416179055604051839285811692908716917fddf252ad1be2c89b69c2b068fc378daa952ba7f163c4a11628f55a4df523b3ef9190a4505050565b600061186682610a1b565b90506118736000836115a8565b60006003838154811061188857611888612426565b6000918252602082200180546001600160a01b0319166001600160a01b0393841617905560405184928416907fddf252ad1be2c89b69c2b068fc378daa952ba7f163c4a11628f55a4df523b3ef908390a45050565b6000826118ea8584611aac565b14949350505050565b600680546001600160a01b038381166001600160a01b0319831681179093556040519116919082907f8be0079c531659141344cd1fd0a4f28419497f9722a3daafe3b4186f6b6457e090600090a35050565b816001600160a01b0316836001600160a01b031614156119a75760405162461bcd60e51b815260206004820152601960248201527f4552433732313a20617070726f766520746f2063616c6c6572000000000000006044820152606401610643565b6001600160a01b03838116600081815260056020908152604080832094871680845294825291829020805460ff191686151590811790915591519182527f17307eab39ab6107e8899845ad3d59bd9653f200f220920489ca2b5937696c31910160405180910390a3505050565b611a1f8484846116d8565b611a2b84848484611b20565b610e045760405162461bcd60e51b815260206004820152603260248201527f4552433732313a207472616e7366657220746f206e6f6e20455243373231526560448201527131b2b4bb32b91034b6b83632b6b2b73a32b960711b6064820152608401610643565b610a17828260405180602001604052806000815250611c69565b600081815b8451811015611b18576000858281518110611ace57611ace612426565b60200260200101519050808311611af45760008381526020829052604090209250611b05565b600081815260208490526040902092505b5080611b108161243c565b915050611ab1565b509392505050565b60006001600160a01b0384163b15611c5e57604051630a85bd0160e11b81526001600160a01b0385169063150b7a0290611b64903390899088908890600401612557565b6020604051808303816000875af1925050508015611b9f575060408051601f3d908101601f19168201909252611b9c91810190612589565b60015b611c44573d808015611bcd576040519150601f19603f3d011682016040523d82523d6000602084013e611bd2565b606091505b508051611c3c5760405162461bcd60e51b815260206004820152603260248201527f4552433732313a207472616e7366657220746f206e6f6e20455243373231526560448201527131b2b4bb32b91034b6b83632b6b2b73a32b960711b6064820152608401610643565b805181602001fd5b6001600160e01b031916630a85bd0160e11b1490506110a3565b506001949350505050565b611c738383611ce7565b611c806000848484611b20565b6108115760405162461bcd60e51b815260206004820152603260248201527f4552433732313a207472616e7366657220746f206e6f6e20455243373231526560448201527131b2b4bb32b91034b6b83632b6b2b73a32b960711b6064820152608401610643565b6001600160a01b038216611d3d5760405162461bcd60e51b815260206004820181905260248201527f4552433732313a206d696e7420746f20746865207a65726f20616464726573736044820152606401610643565b611d468161155e565b15611d935760405162461bcd60e51b815260206004820152601c60248201527f4552433732313a20746f6b656e20616c7265616479206d696e746564000000006044820152606401610643565b6003805460018101825560009182527fc2575a0e9e593c00f959f8c92f12db2869c3395a3b0502d05e2516446f71f85b0180546001600160a01b0319166001600160a01b0385169081179091556040518392907fddf252ad1be2c89b69c2b068fc378daa952ba7f163c4a11628f55a4df523b3ef908290a45050565b828054611e1b906123b3565b90600052602060002090601f016020900481019282611e3d5760008555611e83565b82601f10611e5657805160ff1916838001178555611e83565b82800160010185558215611e83579182015b82811115611e83578251825591602001919060010190611e68565b50611e8f929150611e93565b5090565b5b80821115611e8f5760008155600101611e94565b6001600160e01b0319811681146109a757600080fd5b600060208284031215611ed057600080fd5b8135611edb81611ea8565b9392505050565b6000815180845260005b81811015611f0857602081850181015186830182015201611eec565b81811115611f1a576000602083870101525b50601f01601f19169290920160200192915050565b602081526000611edb6020830184611ee2565b600060208284031215611f5457600080fd5b5035919050565b6001600160a01b03811681146109a757600080fd5b600060208284031215611f8257600080fd5b8135611edb81611f5b565b60008060408385031215611fa057600080fd5b8235611fab81611f5b565b946020939093013593505050565b600080600060608486031215611fce57600080fd5b8335611fd981611f5b565b92506020840135611fe981611f5b565b929592945050506040919091013590565b6000806040838503121561200d57600080fd5b50508035926020909101359150565b634e487b7160e01b600052604160045260246000fd5b604051601f8201601f1916810167ffffffffffffffff8111828210171561205b5761205b61201c565b604052919050565b600067ffffffffffffffff83111561207d5761207d61201c565b612090601f8401601f1916602001612032565b90508281528383830111156120a457600080fd5b828260208301376000602084830101529392505050565b6000602082840312156120cd57600080fd5b813567ffffffffffffffff8111156120e457600080fd5b8201601f810184136120f557600080fd5b6110a384823560208401612063565b600082601f83011261211557600080fd5b8135602067ffffffffffffffff8211156121315761213161201c565b8160051b612140828201612032565b928352848101820192828101908785111561215a57600080fd5b83870192505b8483101561217957823582529183019190830190612160565b979650505050505050565b80357fff00000000000000000000000000000000000000000000000000000000000000811681146121b457600080fd5b919050565b6000806000606084860312156121ce57600080fd5b83356121d981611f5b565b9250602084013567ffffffffffffffff8111156121f557600080fd5b61220186828701612104565b92505061221060408501612184565b90509250925092565b803560ff811681146121b457600080fd5b60006020828403121561223c57600080fd5b611edb82612219565b803580151581146121b457600080fd5b6000806040838503121561226857600080fd5b823561227381611f5b565b915061228160208401612245565b90509250929050565b600080600080608085870312156122a057600080fd5b84356122ab81611f5b565b935060208501356122bb81611f5b565b925060408501359150606085013567ffffffffffffffff8111156122de57600080fd5b8501601f810187136122ef57600080fd5b6122fe87823560208401612063565b91505092959194509250565b60006020828403121561231c57600080fd5b611edb82612245565b6000806040838503121561233857600080fd5b823561234381611f5b565b9150602083013561235381611f5b565b809150509250929050565b60008060006060848603121561237357600080fd5b833567ffffffffffffffff81111561238a57600080fd5b61239686828701612104565b9350506123a560208501612184565b915061221060408501612219565b600181811c908216806123c757607f821691505b602082108114156123e857634e487b7160e01b600052602260045260246000fd5b50919050565b634e487b7160e01b600052601160045260246000fd5b60008261242157634e487b7160e01b600052601260045260246000fd5b500490565b634e487b7160e01b600052603260045260246000fd5b6000600019821415612450576124506123ee565b5060010190565b600080835481600182811c91508083168061247357607f831692505b602080841082141561249357634e487b7160e01b86526022600452602486fd5b8180156124a757600181146124b8576124e5565b60ff198616895284890196506124e5565b60008a81526020902060005b868110156124dd5781548b8201529085019083016124c4565b505084890196505b509498975050505050505050565b60006020828403121561250557600080fd5b8151611edb81611f5b565b600060ff821660ff84168060ff0382111561252d5761252d6123ee565b019392505050565b600061ffff8083168181141561254d5761254d6123ee565b6001019392505050565b60006001600160a01b03808716835280861660208401525083604083015260806060830152610b2e6080830184611ee2565b60006020828403121561259b57600080fd5b8151611edb81611ea856fea2646970667358221220dbbc9b3f9fea8575163caa22f8ec8e1daea177fefbbac644ec8e76a2d2bfb7ca64736f6c634300080a003350737963686564656c69637320416e6f6e796d6f7573205072696e74696e67205072657373697066733a2f2f516d5050586f55384b6a61326a5a454d394d6f6759626531317338716246364b4a77714331384c6a397167425056",
    "linkReferences": {},
    "deployedLinkReferences": {}
}