{
  "_format": "hh-sol-artifact-1",
  "contractName": "UtilityPassNFT",
  "sourceName": "contracts/UtilityPassNFT.sol",
  "abi": [
    {
      "inputs": [
        {
          "internalType": "address",
          "name": "_genesisAddress",
          "type": "address"
        },
        {
          "internalType": "address",
          "name": "_openSeaProxyRegistryAddress",
          "type": "address"
        },
        {
          "internalType": "uint256",
          "name": "_supply",
          "type": "uint256"
        },
        {
          "internalType": "uint256",
          "name": "_giveawaySupply",
          "type": "uint256"
        }
      ],
      "stateMutability": "nonpayable",
      "type": "constructor"
    },
    {
      "anonymous": false,
      "inputs": [
        {
          "indexed": true,
          "internalType": "address",
          "name": "owner",
          "type": "address"
        },
        {
          "indexed": true,
          "internalType": "address",
          "name": "approved",
          "type": "address"
        },
        {
          "indexed": true,
          "internalType": "uint256",
          "name": "tokenId",
          "type": "uint256"
        }
      ],
      "name": "Approval",
      "type": "event"
    },
    {
      "anonymous": false,
      "inputs": [
        {
          "indexed": true,
          "internalType": "address",
          "name": "owner",
          "type": "address"
        },
        {
          "indexed": true,
          "internalType": "address",
          "name": "operator",
          "type": "address"
        },
        {
          "indexed": false,
          "internalType": "bool",
          "name": "approved",
          "type": "bool"
        }
      ],
      "name": "ApprovalForAll",
      "type": "event"
    },
    {
      "anonymous": false,
      "inputs": [
        {
          "indexed": true,
          "internalType": "address",
          "name": "previousOwner",
          "type": "address"
        },
        {
          "indexed": true,
          "internalType": "address",
          "name": "newOwner",
          "type": "address"
        }
      ],
      "name": "OwnershipTransferred",
      "type": "event"
    },
    {
      "anonymous": false,
      "inputs": [
        {
          "indexed": true,
          "internalType": "address",
          "name": "from",
          "type": "address"
        },
        {
          "indexed": true,
          "internalType": "address",
          "name": "to",
          "type": "address"
        },
        {
          "indexed": true,
          "internalType": "uint256",
          "name": "tokenId",
          "type": "uint256"
        }
      ],
      "name": "Transfer",
      "type": "event"
    },
    {
      "inputs": [],
      "name": "PRICE",
      "outputs": [
        {
          "internalType": "uint256",
          "name": "",
          "type": "uint256"
        }
      ],
      "stateMutability": "view",
      "type": "function"
    },
    {
      "inputs": [
        {
          "internalType": "address",
          "name": "to",
          "type": "address"
        },
        {
          "internalType": "uint256",
          "name": "tokenId",
          "type": "uint256"
        }
      ],
      "name": "approve",
      "outputs": [],
      "stateMutability": "nonpayable",
      "type": "function"
    },
    {
      "inputs": [
        {
          "internalType": "address",
          "name": "owner",
          "type": "address"
        }
      ],
      "name": "balanceOf",
      "outputs": [
        {
          "internalType": "uint256",
          "name": "",
          "type": "uint256"
        }
      ],
      "stateMutability": "view",
      "type": "function"
    },
    {
      "inputs": [],
      "name": "baseTokenURI",
      "outputs": [
        {
          "internalType": "string",
          "name": "",
          "type": "string"
        }
      ],
      "stateMutability": "view",
      "type": "function"
    },
    {
      "inputs": [
        {
          "internalType": "uint256",
          "name": "tokenId",
          "type": "uint256"
        }
      ],
      "name": "burn",
      "outputs": [],
      "stateMutability": "nonpayable",
      "type": "function"
    },
    {
      "inputs": [],
      "name": "genesisAddress",
      "outputs": [
        {
          "internalType": "address",
          "name": "",
          "type": "address"
        }
      ],
      "stateMutability": "view",
      "type": "function"
    },
    {
      "inputs": [
        {
          "internalType": "uint256",
          "name": "tokenId",
          "type": "uint256"
        }
      ],
      "name": "getApproved",
      "outputs": [
        {
          "internalType": "address",
          "name": "",
          "type": "address"
        }
      ],
      "stateMutability": "view",
      "type": "function"
    },
    {
      "inputs": [
        {
          "internalType": "address",
          "name": "_to",
          "type": "address"
        },
        {
          "internalType": "uint256",
          "name": "_amount",
          "type": "uint256"
        }
      ],
      "name": "giveaway",
      "outputs": [],
      "stateMutability": "nonpayable",
      "type": "function"
    },
    {
      "inputs": [],
      "name": "giveawaySupply",
      "outputs": [
        {
          "internalType": "uint256",
          "name": "",
          "type": "uint256"
        }
      ],
      "stateMutability": "view",
      "type": "function"
    },
    {
      "inputs": [
        {
          "internalType": "address",
          "name": "owner",
          "type": "address"
        },
        {
          "internalType": "address",
          "name": "operator",
          "type": "address"
        }
      ],
      "name": "isApprovedForAll",
      "outputs": [
        {
          "internalType": "bool",
          "name": "",
          "type": "bool"
        }
      ],
      "stateMutability": "view",
      "type": "function"
    },
    {
      "inputs": [
        {
          "internalType": "address",
          "name": "_to",
          "type": "address"
        },
        {
          "internalType": "uint256",
          "name": "_amount",
          "type": "uint256"
        }
      ],
      "name": "mint",
      "outputs": [
        {
          "internalType": "bool",
          "name": "",
          "type": "bool"
        }
      ],
      "stateMutability": "nonpayable",
      "type": "function"
    },
    {
      "inputs": [
        {
          "internalType": "uint256",
          "name": "_amount",
          "type": "uint256"
        }
      ],
      "name": "mintGenesisSoldOut",
      "outputs": [],
      "stateMutability": "payable",
      "type": "function"
    },
    {
      "inputs": [],
      "name": "mintableSupply",
      "outputs": [
        {
          "internalType": "uint256",
          "name": "",
          "type": "uint256"
        }
      ],
      "stateMutability": "view",
      "type": "function"
    },
    {
      "inputs": [],
      "name": "name",
      "outputs": [
        {
          "internalType": "string",
          "name": "",
          "type": "string"
        }
      ],
      "stateMutability": "view",
      "type": "function"
    },
    {
      "inputs": [],
      "name": "owner",
      "outputs": [
        {
          "internalType": "address",
          "name": "",
          "type": "address"
        }
      ],
      "stateMutability": "view",
      "type": "function"
    },
    {
      "inputs": [
        {
          "internalType": "uint256",
          "name": "tokenId",
          "type": "uint256"
        }
      ],
      "name": "ownerOf",
      "outputs": [
        {
          "internalType": "address",
          "name": "",
          "type": "address"
        }
      ],
      "stateMutability": "view",
      "type": "function"
    },
    {
      "inputs": [],
      "name": "renounceOwnership",
      "outputs": [],
      "stateMutability": "nonpayable",
      "type": "function"
    },
    {
      "inputs": [
        {
          "internalType": "uint256",
          "name": "tokenId",
          "type": "uint256"
        },
        {
          "internalType": "uint256",
          "name": "salePrice",
          "type": "uint256"
        }
      ],
      "name": "royaltyInfo",
      "outputs": [
        {
          "internalType": "address",
          "name": "receiver",
          "type": "address"
        },
        {
          "internalType": "uint256",
          "name": "royaltyAmount",
          "type": "uint256"
        }
      ],
      "stateMutability": "view",
      "type": "function"
    },
    {
      "inputs": [
        {
          "internalType": "address",
          "name": "from",
          "type": "address"
        },
        {
          "internalType": "address",
          "name": "to",
          "type": "address"
        },
        {
          "internalType": "uint256",
          "name": "tokenId",
          "type": "uint256"
        }
      ],
      "name": "safeTransferFrom",
      "outputs": [],
      "stateMutability": "nonpayable",
      "type": "function"
    },
    {
      "inputs": [
        {
          "internalType": "address",
          "name": "from",
          "type": "address"
        },
        {
          "internalType": "address",
          "name": "to",
          "type": "address"
        },
        {
          "internalType": "uint256",
          "name": "tokenId",
          "type": "uint256"
        },
        {
          "internalType": "bytes",
          "name": "_data",
          "type": "bytes"
        }
      ],
      "name": "safeTransferFrom",
      "outputs": [],
      "stateMutability": "nonpayable",
      "type": "function"
    },
    {
      "inputs": [
        {
          "internalType": "address",
          "name": "operator",
          "type": "address"
        },
        {
          "internalType": "bool",
          "name": "approved",
          "type": "bool"
        }
      ],
      "name": "setApprovalForAll",
      "outputs": [],
      "stateMutability": "nonpayable",
      "type": "function"
    },
    {
      "inputs": [
        {
          "internalType": "string",
          "name": "_uri",
          "type": "string"
        }
      ],
      "name": "setBaseURI",
      "outputs": [],
      "stateMutability": "nonpayable",
      "type": "function"
    },
    {
      "inputs": [
        {
          "internalType": "address",
          "name": "_genesisAddress",
          "type": "address"
        }
      ],
      "name": "setGenesisAddress",
      "outputs": [],
      "stateMutability": "nonpayable",
      "type": "function"
    },
    {
      "inputs": [
        {
          "internalType": "bool",
          "name": "_isOpenSeaProxyActive",
          "type": "bool"
        }
      ],
      "name": "setIsOpenSeaProxyActive",
      "outputs": [],
      "stateMutability": "nonpayable",
      "type": "function"
    },
    {
      "inputs": [
        {
          "internalType": "address",
          "name": "_openSeaProxyRegistryAddress",
          "type": "address"
        }
      ],
      "name": "setOpenSeaProxyRegistryAddress",
      "outputs": [],
      "stateMutability": "nonpayable",
      "type": "function"
    },
    {
      "inputs": [
        {
          "internalType": "uint256",
          "name": "_divisor",
          "type": "uint256"
        }
      ],
      "name": "setRoyaltyDivisor",
      "outputs": [],
      "stateMutability": "nonpayable",
      "type": "function"
    },
    {
      "inputs": [
        {
          "internalType": "address",
          "name": "_dest1",
          "type": "address"
        },
        {
          "internalType": "address",
          "name": "_dest2",
          "type": "address"
        }
      ],
      "name": "setWithdrawDests",
      "outputs": [],
      "stateMutability": "nonpayable",
      "type": "function"
    },
    {
      "inputs": [],
      "name": "supply",
      "outputs": [
        {
          "internalType": "uint256",
          "name": "",
          "type": "uint256"
        }
      ],
      "stateMutability": "view",
      "type": "function"
    },
    {
      "inputs": [
        {
          "internalType": "bytes4",
          "name": "interfaceId",
          "type": "bytes4"
        }
      ],
      "name": "supportsInterface",
      "outputs": [
        {
          "internalType": "bool",
          "name": "",
          "type": "bool"
        }
      ],
      "stateMutability": "view",
      "type": "function"
    },
    {
      "inputs": [],
      "name": "symbol",
      "outputs": [
        {
          "internalType": "string",
          "name": "",
          "type": "string"
        }
      ],
      "stateMutability": "view",
      "type": "function"
    },
    {
      "inputs": [],
      "name": "tokenCount",
      "outputs": [
        {
          "internalType": "uint256",
          "name": "",
          "type": "uint256"
        }
      ],
      "stateMutability": "view",
      "type": "function"
    },
    {
      "inputs": [
        {
          "internalType": "uint256",
          "name": "tokenId",
          "type": "uint256"
        }
      ],
      "name": "tokenURI",
      "outputs": [
        {
          "internalType": "string",
          "name": "",
          "type": "string"
        }
      ],
      "stateMutability": "view",
      "type": "function"
    },
    {
      "inputs": [
        {
          "internalType": "address",
          "name": "from",
          "type": "address"
        },
        {
          "internalType": "address",
          "name": "to",
          "type": "address"
        },
        {
          "internalType": "uint256",
          "name": "tokenId",
          "type": "uint256"
        }
      ],
      "name": "transferFrom",
      "outputs": [],
      "stateMutability": "nonpayable",
      "type": "function"
    },
    {
      "inputs": [
        {
          "internalType": "address",
          "name": "newOwner",
          "type": "address"
        }
      ],
      "name": "transferOwnership",
      "outputs": [],
      "stateMutability": "nonpayable",
      "type": "function"
    },
    {
      "inputs": [],
      "name": "withdraw",
      "outputs": [],
      "stateMutability": "nonpayable",
      "type": "function"
    },
    {
      "inputs": [],
      "name": "withdrawDest1",
      "outputs": [
        {
          "internalType": "address",
          "name": "",
          "type": "address"
        }
      ],
      "stateMutability": "view",
      "type": "function"
    },
    {
      "inputs": [],
      "name": "withdrawDest2",
      "outputs": [
        {
          "internalType": "address",
          "name": "",
          "type": "address"
        }
      ],
      "stateMutability": "view",
      "type": "function"
    }
  ],
  "bytecode": "0x60806040526000600b55600c805460ff60a01b1916600160a01b1790556014600d556064600e81905561257b600f8190556200003c919062000310565b601055601180546001600160a01b031990811673b0b035d2e95d2c7820d58a56575b0c24ba8a964117909155601280549091167327a05d42046eace2ed21282643b1530867ffb2bb1790553480156200009457600080fd5b506040516200304638038062003046833981016040819052620000b791620002c9565b604080518082018252601881527f50737963686564656c696373204e4654205574696c69747900000000000000006020808301918252835180850190945260048452631555125360e21b908401528151919291620001189160009162000206565b5080516200012e90600190602084019062000206565b5050506200014b62000145620001b060201b60201c565b620001b4565b6001600755600980546001600160a01b03199081166001600160a01b03878116918217909355600a805483169091179055600c8054909116918516919091179055600f829055600e819055620001a2818362000310565b601055506200037192505050565b3390565b600680546001600160a01b038381166001600160a01b0319831681179093556040519116919082907f8be0079c531659141344cd1fd0a4f28419497f9722a3daafe3b4186f6b6457e090600090a35050565b828054620002149062000334565b90600052602060002090601f01602090048101928262000238576000855562000283565b82601f106200025357805160ff191683800117855562000283565b8280016001018555821562000283579182015b828111156200028357825182559160200191906001019062000266565b506200029192915062000295565b5090565b5b8082111562000291576000815560010162000296565b80516001600160a01b0381168114620002c457600080fd5b919050565b60008060008060808587031215620002df578384fd5b620002ea85620002ac565b9350620002fa60208601620002ac565b6040860151606090960151949790965092505050565b6000828210156200032f57634e487b7160e01b81526011600452602481fd5b500390565b600181811c908216806200034957607f821691505b602082108114156200036b57634e487b7160e01b600052602260045260246000fd5b50919050565b612cc580620003816000396000f3fe60806040526004361061026a5760003560e01c806370fc13cf11610153578063b88d4fde116100cb578063dfde74051161007f578063e43082f711610064578063e43082f7146106a5578063e985e9c5146106c5578063f2fde38b146106e557600080fd5b8063dfde74051461066f578063e288e7331461068f57600080fd5b8063cbc21b08116100b0578063cbc21b0814610624578063cc5c095c14610644578063d547cfb71461065a57600080fd5b8063b88d4fde146105e4578063c87b56dd1461060457600080fd5b806395d89b4111610122578063a22cb46511610107578063a22cb46514610584578063ab82782c146105a4578063b1214392146105c457600080fd5b806395d89b41146105595780639f181b5e1461056e57600080fd5b806370fc13cf146104f8578063715018a61461050b5780638d859f3e146105205780638da5cb5b1461053b57600080fd5b80633ccfd60b116101e657806355f804b3116101b557806361869a931161019a57806361869a93146104985780636352211e146104b857806370a08231146104d857600080fd5b806355f804b3146104585780636065fb331461047857600080fd5b80633ccfd60b146103e357806340c10f19146103f857806342842e0e1461041857806342966c681461043857600080fd5b8063081812fc1161023d578063095ea7b311610222578063095ea7b31461036457806323b872dd146103845780632a55205a146103a457600080fd5b8063081812fc1461030c57806308abf0261461034457600080fd5b806301ffc9a71461026f578063047fc9aa146102a4578063050225ea146102c857806306fdde03146102ea575b600080fd5b34801561027b57600080fd5b5061028f61028a366004612987565b610705565b60405190151581526020015b60405180910390f35b3480156102b057600080fd5b506102ba600f5481565b60405190815260200161029b565b3480156102d457600080fd5b506102e86102e3366004612924565b6107ea565b005b3480156102f657600080fd5b506102ff610957565b60405161029b9190612af1565b34801561031857600080fd5b5061032c610327366004612a21565b6109e9565b6040516001600160a01b03909116815260200161029b565b34801561035057600080fd5b506102e861035f3660046127e6565b610a8f565b34801561037057600080fd5b506102e861037f366004612924565b610b18565b34801561039057600080fd5b506102e861039f36600461283a565b610c4a565b3480156103b057600080fd5b506103c46103bf366004612a39565b610cd2565b604080516001600160a01b03909316835260208301919091520161029b565b3480156103ef57600080fd5b506102e8610d59565b34801561040457600080fd5b5061028f610413366004612924565b610e38565b34801561042457600080fd5b506102e861043336600461283a565b610f3d565b34801561044457600080fd5b506102e8610453366004612a21565b610f58565b34801561046457600080fd5b506102e86104733660046129db565b610fb9565b34801561048457600080fd5b5060095461032c906001600160a01b031681565b3480156104a457600080fd5b5060115461032c906001600160a01b031681565b3480156104c457600080fd5b5061032c6104d3366004612a21565b611026565b3480156104e457600080fd5b506102ba6104f33660046127e6565b6110b1565b6102e8610506366004612a21565b61114b565b34801561051757600080fd5b506102e8611444565b34801561052c57600080fd5b506102ba669fdf42f6e4800081565b34801561054757600080fd5b506006546001600160a01b031661032c565b34801561056557600080fd5b506102ff6114a8565b34801561057a57600080fd5b506102ba600b5481565b34801561059057600080fd5b506102e861059f3660046128f7565b6114b7565b3480156105b057600080fd5b506102e86105bf3660046127e6565b61159a565b3480156105d057600080fd5b5060125461032c906001600160a01b031681565b3480156105f057600080fd5b506102e86105ff36600461287a565b611623565b34801561061057600080fd5b506102ff61061f366004612a21565b6116b1565b34801561063057600080fd5b506102e861063f366004612a21565b61179a565b34801561065057600080fd5b506102ba60105481565b34801561066657600080fd5b506102ff6117f9565b34801561067b57600080fd5b506102e861068a366004612802565b611887565b34801561069b57600080fd5b506102ba600e5481565b3480156106b157600080fd5b506102e86106c036600461294f565b61191c565b3480156106d157600080fd5b5061028f6106e0366004612802565b6119c0565b3480156106f157600080fd5b506102e86107003660046127e6565b611ad6565b60007fffffffff0000000000000000000000000000000000000000000000000000000082167f80ac58cd00000000000000000000000000000000000000000000000000000000148061079857507fffffffff0000000000000000000000000000000000000000000000000000000082167f5b5e139f00000000000000000000000000000000000000000000000000000000145b806107e457507f01ffc9a7000000000000000000000000000000000000000000000000000000007fffffffff000000000000000000000000000000000000000000000000000000008316145b92915050565b6006546001600160a01b031633146108495760405162461bcd60e51b815260206004820181905260248201527f4f776e61626c653a2063616c6c6572206973206e6f7420746865206f776e657260448201526064015b60405180910390fd5b600f5481600b5461085a9190612b04565b11156108a85760405162461bcd60e51b815260206004820152601160248201527f4e6f7420656e6f75676820737570706c790000000000000000000000000000006044820152606401610840565b600e5481106108f95760405162461bcd60e51b815260206004820152601960248201527f476976696e67206177617920746f6f206d616e79204e465473000000000000006044820152606401610840565b600081116109495760405162461bcd60e51b815260206004820181905260248201527f416d6f756e74206d7573742062652067726561746572207468616e207a65726f6044820152606401610840565b6109538282611bb5565b5050565b60606000805461096690612b92565b80601f016020809104026020016040519081016040528092919081815260200182805461099290612b92565b80156109df5780601f106109b4576101008083540402835291602001916109df565b820191906000526020600020905b8154815290600101906020018083116109c257829003601f168201915b5050505050905090565b6000818152600260205260408120546001600160a01b0316610a735760405162461bcd60e51b815260206004820152602c60248201527f4552433732313a20617070726f76656420717565727920666f72206e6f6e657860448201527f697374656e7420746f6b656e00000000000000000000000000000000000000006064820152608401610840565b506000908152600460205260409020546001600160a01b031690565b6006546001600160a01b03163314610ae95760405162461bcd60e51b815260206004820181905260248201527f4f776e61626c653a2063616c6c6572206973206e6f7420746865206f776e65726044820152606401610840565b600c805473ffffffffffffffffffffffffffffffffffffffff19166001600160a01b0392909216919091179055565b6000610b2382611026565b9050806001600160a01b0316836001600160a01b03161415610bad5760405162461bcd60e51b815260206004820152602160248201527f4552433732313a20617070726f76616c20746f2063757272656e74206f776e6560448201527f72000000000000000000000000000000000000000000000000000000000000006064820152608401610840565b336001600160a01b0382161480610bc95750610bc981336119c0565b610c3b5760405162461bcd60e51b815260206004820152603860248201527f4552433732313a20617070726f76652063616c6c6572206973206e6f74206f7760448201527f6e6572206e6f7220617070726f76656420666f7220616c6c00000000000000006064820152608401610840565b610c458383611bf1565b505050565b610c55335b82611c6c565b610cc75760405162461bcd60e51b815260206004820152603160248201527f4552433732313a207472616e736665722063616c6c6572206973206e6f74206f60448201527f776e6572206e6f7220617070726f7665640000000000000000000000000000006064820152608401610840565b610c45838383611d4c565b60008281526002602052604081205481906001600160a01b0316610d385760405162461bcd60e51b815260206004820152601160248201527f4e6f6e6578697374656e7420746f6b656e0000000000000000000000000000006044820152606401610840565b30610d4e600d5485611f2690919063ffffffff16565b915091509250929050565b6006546001600160a01b03163314610db35760405162461bcd60e51b815260206004820181905260248201527f4f776e61626c653a2063616c6c6572206973206e6f7420746865206f776e65726044820152606401610840565b47610e005760405162461bcd60e51b815260206004820152600f60248201527f42616c616e6365206973207a65726f00000000000000000000000000000000006044820152606401610840565b610e20610e0e476014611f26565b6011546001600160a01b031690611f32565b601254610e36906001600160a01b031647611f32565b565b6009546000906001600160a01b03163314610ebb5760405162461bcd60e51b815260206004820152602260248201527f4f6e6c792067656e65736973204e465420636f6e74726163742063616e206d6960448201527f6e740000000000000000000000000000000000000000000000000000000000006064820152608401610840565b60038210610f0b5760405162461bcd60e51b815260206004820152601760248201527f4d696e74696e67206c696d6974732065786365656465640000000000000000006044820152606401610840565b60105482600b54610f1c9190612b04565b1115610f2a575060006107e4565b610f348383611bb5565b50600192915050565b610c4583838360405180602001604052806000815250611623565b610f6133610c4f565b610fad5760405162461bcd60e51b815260206004820181905260248201527f63616c6c6572206973206e6f74206f776e6572206e6f7220617070726f7665646044820152606401610840565b610fb68161204b565b50565b6006546001600160a01b031633146110135760405162461bcd60e51b815260206004820181905260248201527f4f776e61626c653a2063616c6c6572206973206e6f7420746865206f776e65726044820152606401610840565b80516109539060089060208401906126d7565b6000818152600260205260408120546001600160a01b0316806107e45760405162461bcd60e51b815260206004820152602960248201527f4552433732313a206f776e657220717565727920666f72206e6f6e657869737460448201527f656e7420746f6b656e00000000000000000000000000000000000000000000006064820152608401610840565b60006001600160a01b03821661112f5760405162461bcd60e51b815260206004820152602a60248201527f4552433732313a2062616c616e636520717565727920666f7220746865207a6560448201527f726f2061646472657373000000000000000000000000000000000000000000006064820152608401610840565b506001600160a01b031660009081526003602052604090205490565b33321461119a5760405162461bcd60e51b815260206004820152601d60248201527f436f6e747261637473206e6f7420616c6c6f77656420746f206d696e740000006044820152606401610840565b600260075414156111ed5760405162461bcd60e51b815260206004820152601f60248201527f5265656e7472616e637947756172643a207265656e7472616e742063616c6c006044820152606401610840565b6002600755600a54604080517f2da5ea1700000000000000000000000000000000000000000000000000000000815290516001600160a01b0390921691632da5ea1791600480820192602092909190829003018186803b15801561125057600080fd5b505afa158015611264573d6000803e3d6000fd5b505050506040513d601f19601f82011682018060405250810190611288919061296b565b6112d45760405162461bcd60e51b815260206004820152601460248201527f47656e65736973206e6f7420736f6c64206f75740000000000000000000000006044820152606401610840565b60105481600b546112e59190612b04565b11156113335760405162461bcd60e51b815260206004820152601160248201527f4e6f7420656e6f75676820737570706c790000000000000000000000000000006044820152606401610840565b61134481669fdf42f6e48000612b30565b34146113925760405162461bcd60e51b815260206004820152601960248201527f45746865722073656e74206973206e6f7420636f7272656374000000000000006044820152606401610840565b600081116113e25760405162461bcd60e51b815260206004820152601860248201527f4d757374206d696e74206174206c656173742031204e465400000000000000006044820152606401610840565b600381106114325760405162461bcd60e51b815260206004820152601760248201527f4d696e74696e67206c696d6974732065786365656465640000000000000000006044820152606401610840565b61143c3382611bb5565b506001600755565b6006546001600160a01b0316331461149e5760405162461bcd60e51b815260206004820181905260248201527f4f776e61626c653a2063616c6c6572206973206e6f7420746865206f776e65726044820152606401610840565b610e3660006120f3565b60606001805461096690612b92565b6001600160a01b0382163314156115105760405162461bcd60e51b815260206004820152601960248201527f4552433732313a20617070726f766520746f2063616c6c6572000000000000006044820152606401610840565b3360008181526005602090815260408083206001600160a01b0387168085529083529281902080547fffffffffffffffffffffffffffffffffffffffffffffffffffffffffffffff001686151590811790915590519081529192917f17307eab39ab6107e8899845ad3d59bd9653f200f220920489ca2b5937696c31910160405180910390a35050565b6006546001600160a01b031633146115f45760405162461bcd60e51b815260206004820181905260248201527f4f776e61626c653a2063616c6c6572206973206e6f7420746865206f776e65726044820152606401610840565b6009805473ffffffffffffffffffffffffffffffffffffffff19166001600160a01b0392909216919091179055565b61162d3383611c6c565b61169f5760405162461bcd60e51b815260206004820152603160248201527f4552433732313a207472616e736665722063616c6c6572206973206e6f74206f60448201527f776e6572206e6f7220617070726f7665640000000000000000000000000000006064820152608401610840565b6116ab84848484612152565b50505050565b6000818152600260205260409020546060906001600160a01b031661173e5760405162461bcd60e51b815260206004820152602f60248201527f4552433732314d657461646174613a2055524920717565727920666f72206e6f60448201527f6e6578697374656e7420746f6b656e00000000000000000000000000000000006064820152608401610840565b60006117486121db565b905060008151116117685760405180602001604052806000815250611793565b80611772846121ea565b604051602001611783929190612a86565b6040516020818303038152906040525b9392505050565b6006546001600160a01b031633146117f45760405162461bcd60e51b815260206004820181905260248201527f4f776e61626c653a2063616c6c6572206973206e6f7420746865206f776e65726044820152606401610840565b600d55565b6008805461180690612b92565b80601f016020809104026020016040519081016040528092919081815260200182805461183290612b92565b801561187f5780601f106118545761010080835404028352916020019161187f565b820191906000526020600020905b81548152906001019060200180831161186257829003601f168201915b505050505081565b6006546001600160a01b031633146118e15760405162461bcd60e51b815260206004820181905260248201527f4f776e61626c653a2063616c6c6572206973206e6f7420746865206f776e65726044820152606401610840565b601180546001600160a01b0393841673ffffffffffffffffffffffffffffffffffffffff199182161790915560128054929093169116179055565b6006546001600160a01b031633146119765760405162461bcd60e51b815260206004820181905260248201527f4f776e61626c653a2063616c6c6572206973206e6f7420746865206f776e65726044820152606401610840565b600c805491151574010000000000000000000000000000000000000000027fffffffffffffffffffffff00ffffffffffffffffffffffffffffffffffffffff909216919091179055565b600c546000906001600160a01b0381169074010000000000000000000000000000000000000000900460ff168015611a9557506040517fc45527910000000000000000000000000000000000000000000000000000000081526001600160a01b038581166004830152808516919083169063c45527919060240160206040518083038186803b158015611a5257600080fd5b505afa158015611a66573d6000803e3d6000fd5b505050506040513d601f19601f82011682018060405250810190611a8a91906129bf565b6001600160a01b0316145b15611aa45760019150506107e4565b6001600160a01b0380851660009081526005602090815260408083209387168352929052205460ff165b949350505050565b6006546001600160a01b03163314611b305760405162461bcd60e51b815260206004820181905260248201527f4f776e61626c653a2063616c6c6572206973206e6f7420746865206f776e65726044820152606401610840565b6001600160a01b038116611bac5760405162461bcd60e51b815260206004820152602660248201527f4f776e61626c653a206e6577206f776e657220697320746865207a65726f206160448201527f64647265737300000000000000000000000000000000000000000000000000006064820152608401610840565b610fb6816120f3565b60005b81811015610c4557600b8054611bdf918591906000611bd683612bcd565b91905055612338565b80611be981612bcd565b915050611bb8565b6000818152600460205260409020805473ffffffffffffffffffffffffffffffffffffffff19166001600160a01b0384169081179091558190611c3382611026565b6001600160a01b03167f8c5be1e5ebec7d5bd14f71427d1e84f3dd0314c0f7b2291e5b200ac8c7c3b92560405160405180910390a45050565b6000818152600260205260408120546001600160a01b0316611cf65760405162461bcd60e51b815260206004820152602c60248201527f4552433732313a206f70657261746f7220717565727920666f72206e6f6e657860448201527f697374656e7420746f6b656e00000000000000000000000000000000000000006064820152608401610840565b6000611d0183611026565b9050806001600160a01b0316846001600160a01b03161480611d3c5750836001600160a01b0316611d31846109e9565b6001600160a01b0316145b80611ace5750611ace81856119c0565b826001600160a01b0316611d5f82611026565b6001600160a01b031614611ddb5760405162461bcd60e51b815260206004820152602960248201527f4552433732313a207472616e73666572206f6620746f6b656e2074686174206960448201527f73206e6f74206f776e00000000000000000000000000000000000000000000006064820152608401610840565b6001600160a01b038216611e565760405162461bcd60e51b8152602060048201526024808201527f4552433732313a207472616e7366657220746f20746865207a65726f2061646460448201527f72657373000000000000000000000000000000000000000000000000000000006064820152608401610840565b611e61600082611bf1565b6001600160a01b0383166000908152600360205260408120805460019290611e8a908490612b4f565b90915550506001600160a01b0382166000908152600360205260408120805460019290611eb8908490612b04565b9091555050600081815260026020526040808220805473ffffffffffffffffffffffffffffffffffffffff19166001600160a01b0386811691821790925591518493918716917fddf252ad1be2c89b69c2b068fc378daa952ba7f163c4a11628f55a4df523b3ef91a4505050565b60006117938284612b1c565b80471015611f825760405162461bcd60e51b815260206004820152601d60248201527f416464726573733a20696e73756666696369656e742062616c616e63650000006044820152606401610840565b6000826001600160a01b03168260405160006040518083038185875af1925050503d8060008114611fcf576040519150601f19603f3d011682016040523d82523d6000602084013e611fd4565b606091505b5050905080610c455760405162461bcd60e51b815260206004820152603a60248201527f416464726573733a20756e61626c6520746f2073656e642076616c75652c207260448201527f6563697069656e74206d617920686176652072657665727465640000000000006064820152608401610840565b600061205682611026565b9050612063600083611bf1565b6001600160a01b038116600090815260036020526040812080546001929061208c908490612b4f565b9091555050600082815260026020526040808220805473ffffffffffffffffffffffffffffffffffffffff19169055518391906001600160a01b038416907fddf252ad1be2c89b69c2b068fc378daa952ba7f163c4a11628f55a4df523b3ef908390a45050565b600680546001600160a01b0383811673ffffffffffffffffffffffffffffffffffffffff19831681179093556040519116919082907f8be0079c531659141344cd1fd0a4f28419497f9722a3daafe3b4186f6b6457e090600090a35050565b61215d848484611d4c565b61216984848484612352565b6116ab5760405162461bcd60e51b815260206004820152603260248201527f4552433732313a207472616e7366657220746f206e6f6e20455243373231526560448201527f63656976657220696d706c656d656e74657200000000000000000000000000006064820152608401610840565b60606008805461096690612b92565b60608161222a57505060408051808201909152600181527f3000000000000000000000000000000000000000000000000000000000000000602082015290565b8160005b8115612254578061223e81612bcd565b915061224d9050600a83612b1c565b915061222e565b60008167ffffffffffffffff81111561227d57634e487b7160e01b600052604160045260246000fd5b6040519080825280601f01601f1916602001820160405280156122a7576020820181803683370190505b5090505b8415611ace576122bc600183612b4f565b91506122c9600a86612be8565b6122d4906030612b04565b60f81b8183815181106122f757634e487b7160e01b600052603260045260246000fd5b60200101907effffffffffffffffffffffffffffffffffffffffffffffffffffffffffffff1916908160001a905350612331600a86612b1c565b94506122ab565b6109538282604051806020016040528060008152506124ff565b60006001600160a01b0384163b156124f4576040517f150b7a020000000000000000000000000000000000000000000000000000000081526001600160a01b0385169063150b7a02906123af903390899088908890600401612ab5565b602060405180830381600087803b1580156123c957600080fd5b505af19250505080156123f9575060408051601f3d908101601f191682019092526123f6918101906129a3565b60015b6124a9573d808015612427576040519150601f19603f3d011682016040523d82523d6000602084013e61242c565b606091505b5080516124a15760405162461bcd60e51b815260206004820152603260248201527f4552433732313a207472616e7366657220746f206e6f6e20455243373231526560448201527f63656976657220696d706c656d656e74657200000000000000000000000000006064820152608401610840565b805181602001fd5b7fffffffff00000000000000000000000000000000000000000000000000000000167f150b7a0200000000000000000000000000000000000000000000000000000000149050611ace565b506001949350505050565b6125098383612588565b6125166000848484612352565b610c455760405162461bcd60e51b815260206004820152603260248201527f4552433732313a207472616e7366657220746f206e6f6e20455243373231526560448201527f63656976657220696d706c656d656e74657200000000000000000000000000006064820152608401610840565b6001600160a01b0382166125de5760405162461bcd60e51b815260206004820181905260248201527f4552433732313a206d696e7420746f20746865207a65726f20616464726573736044820152606401610840565b6000818152600260205260409020546001600160a01b0316156126435760405162461bcd60e51b815260206004820152601c60248201527f4552433732313a20746f6b656e20616c7265616479206d696e746564000000006044820152606401610840565b6001600160a01b038216600090815260036020526040812080546001929061266c908490612b04565b9091555050600081815260026020526040808220805473ffffffffffffffffffffffffffffffffffffffff19166001600160a01b03861690811790915590518392907fddf252ad1be2c89b69c2b068fc378daa952ba7f163c4a11628f55a4df523b3ef908290a45050565b8280546126e390612b92565b90600052602060002090601f016020900481019282612705576000855561274b565b82601f1061271e57805160ff191683800117855561274b565b8280016001018555821561274b579182015b8281111561274b578251825591602001919060010190612730565b5061275792915061275b565b5090565b5b80821115612757576000815560010161275c565b600067ffffffffffffffff8084111561278b5761278b612c28565b604051601f8501601f19908116603f011681019082821181831017156127b3576127b3612c28565b816040528093508581528686860111156127cc57600080fd5b858560208301376000602087830101525050509392505050565b6000602082840312156127f7578081fd5b813561179381612c3e565b60008060408385031215612814578081fd5b823561281f81612c3e565b9150602083013561282f81612c3e565b809150509250929050565b60008060006060848603121561284e578081fd5b833561285981612c3e565b9250602084013561286981612c3e565b929592945050506040919091013590565b6000806000806080858703121561288f578081fd5b843561289a81612c3e565b935060208501356128aa81612c3e565b925060408501359150606085013567ffffffffffffffff8111156128cc578182fd5b8501601f810187136128dc578182fd5b6128eb87823560208401612770565b91505092959194509250565b60008060408385031215612909578182fd5b823561291481612c3e565b9150602083013561282f81612c53565b60008060408385031215612936578182fd5b823561294181612c3e565b946020939093013593505050565b600060208284031215612960578081fd5b813561179381612c53565b60006020828403121561297c578081fd5b815161179381612c53565b600060208284031215612998578081fd5b813561179381612c61565b6000602082840312156129b4578081fd5b815161179381612c61565b6000602082840312156129d0578081fd5b815161179381612c3e565b6000602082840312156129ec578081fd5b813567ffffffffffffffff811115612a02578182fd5b8201601f81018413612a12578182fd5b611ace84823560208401612770565b600060208284031215612a32578081fd5b5035919050565b60008060408385031215612a4b578182fd5b50508035926020909101359150565b60008151808452612a72816020860160208601612b66565b601f01601f19169290920160200192915050565b60008351612a98818460208801612b66565b835190830190612aac818360208801612b66565b01949350505050565b60006001600160a01b03808716835280861660208401525083604083015260806060830152612ae76080830184612a5a565b9695505050505050565b6020815260006117936020830184612a5a565b60008219821115612b1757612b17612bfc565b500190565b600082612b2b57612b2b612c12565b500490565b6000816000190483118215151615612b4a57612b4a612bfc565b500290565b600082821015612b6157612b61612bfc565b500390565b60005b83811015612b81578181015183820152602001612b69565b838111156116ab5750506000910152565b600181811c90821680612ba657607f821691505b60208210811415612bc757634e487b7160e01b600052602260045260246000fd5b50919050565b6000600019821415612be157612be1612bfc565b5060010190565b600082612bf757612bf7612c12565b500690565b634e487b7160e01b600052601160045260246000fd5b634e487b7160e01b600052601260045260246000fd5b634e487b7160e01b600052604160045260246000fd5b6001600160a01b0381168114610fb657600080fd5b8015158114610fb657600080fd5b7fffffffff0000000000000000000000000000000000000000000000000000000081168114610fb657600080fdfea264697066735822122081b9a4db2716504a28590dbbd522cbb0eba844a27e4ca8f46d1571e4b0ff086964736f6c63430008040033",
  "linkReferences": {},
  "deployedLinkReferences": {}
}